:020000040000FA
:100000000223C97E007F327D007B017A00794B128A
:1000100004A27D0012105FE490004AF0900005F009
:100020009001A2F0A3F09001A1F0220233A7E59184
:1000300054045391FB439104429122020C2B9002F1
:10004000D2E0FEA3E0F5828E83E0229002D2E0FEB1
:10005000A3E0FF2404F582E43EF583E0229002D27F
:10006000E0FEA3E0FFF5828E83A3A322C413131343
:10007000540122023960C2DED2DE22021808E709EA
:10008000F608DFFA8046E709F208DFFA803E888248
:100090008C83E709F0A3DFFA8032E309F608DFFA80
:1000A0008078E309F208DFFA807088828C83E309A4
:1000B000F0A3DFFA806489828A83E0A3F608DFFA7E
:1000C000805889828A83E0A3F208DFFA804C80D2CC
:1000D00080FA80C680D4806980F28033801080A648
:1000E00080EA809A80A880DA80E280CA80338982A0
:1000F0008A83ECFAE493A3C8C582C8CCC583CCF04C
:10010000A3C8C582C8CCC583CCDFE9DEE7800D89F2
:10011000828A83E493A3F608DFF9ECFAA9F0EDFBF9
:100120002289828A83ECFAE0A3C8C582C8CCC58341
:10013000CCF0A3C8C582C8CCC583CCDFEADEE8809A
:10014000DB89828A83E493A3F208DFF980CC88F00C
:10015000EF60010E4E60C388F0ED2402B40400503D
:10016000B9F582EB2402B4040050AF232345822367
:100170009000CE73BB010689828A83E0225002E799
:1001800022BBFE02E32289828A83E49322BB010C14
:10019000E58229F582E5833AF583E0225006E925D8
:1001A00082F8E622BBFE06E92582F8E222E58229F2
:1001B000F582E5833AF583E49322BB010689828ABE
:1001C00083F0225002F722BBFE01F322F8BB010D9F
:1001D000E58229F582E5833AF583E8F0225006E9C5
:1001E0002582C8F622BBFE05E92582C8F222EF8DE2
:1001F000F0A4A8F0CF8CF0A428CE8DF0A42EFE227F
:10020000C5F0F8A3E028F0C5F0F8E5821582700289
:100210001583E038F022BB0110E58229F582E583E1
:100220003AF583E0F5F0A3E0225009E92582F8864B
:10023000F008E622BBFE0AE92582F8E2F5F008E2C2
:1002400022E5832AF583E993F5F0A3E99322BB0124
:100250000A89828A83F0E5F0A3F0225006F709A705
:10026000F01922BBFE06F3E5F009F31922F8BB01F1
:1002700011E58229F582E5833AF583E8F0E5F0A3FC
:10028000F0225009E92582C8F608A6F022BBFE0933
:10029000E92582C8F2E5F008F222EF2BFFEE3AFEE4
:1002A000ED39FDEC38FC22EF4BFFEE4AFEED49FD47
:1002B000EC48FC22EB9FF5F0EA9E42F0E99D42F00B
:1002C000E89C45F022E8600FECC313FCED13FDEE53
:1002D00013FEEF13FFD8F122E8600FEFC333FFEEF8
:1002E00033FEED33FDEC33FCD8F122BB01078982EC
:1002F0008A830203495005E9F8020670BBFE05E94E
:10030000F802067C89828A83020688BB01078982FB
:100310008A830203615005E9F8020698BBFE05E9ED
:10032000F80206A422BB010DE58229F582E5833A95
:10033000F5830203615007E92582F8020698BBFEA7
:1003400007E92582F80206A422E0FCA3E0FDA3E071
:10035000FEA3E0FF22E0F8A3E0F9A3E0FAA3E0FBAC
:1003600022ECF0A3EDF0A3EEF0A3EFF022A882853B
:1003700083F0D083D0821203841203841203841288
:100380000384E473E493A3C583C5F0C583C8C58221
:10039000C8F0A3C583C5F0C583C8C582C822A425FB
:1003A00082F582E5F03583F58322E0FBA3E0FAA332
:1003B000E0F922F8E0FBA3A3E0F925F0F0E58215CF
:1003C0008270021583E0FA38F022EBF0A3EAF0A382
:1003D000E9F022BB010789828A830203AA5005E95A
:1003E000F80206B0BBFE05E9F80206C289828A83DC
:1003F0000206D4BB010DE58229F582E5833AF58337
:100400000203AA5007E92582F80206B0BBFE07E9FD
:100410002582F80206C2E58229F582E5833AF58352
:100420000206D4BB0120E58229F582E5833AF583F3
:10043000D0F0D0E0F8D0E0F9D0E0FAD0E0FBE8C0AE
:10044000E0C0F00203CA5018E92582F8D083D082B8
:10045000D0E0F9D0E0FAD0E0FBC082C0830206B958
:10046000BBFE18E92582F8D083D082D0E0F9D0E035
:10047000FAD0E0FBC082C0830206CB22D083D082B8
:10048000F8E4937012740193700DA3A393F87401B0
:1004900093F5828883E4737402936860EFA3A3A347
:1004A00080DFEF4E6012EF60010EEDBB010B898221
:1004B0008A83F0A3DFFCDEFA2289F05007F709DF18
:1004C000FCA9F022BBFEFCF309DFFCA9F022E7093E
:1004D000F608DFFA807BE9D39850F3E92FF9E82F8B
:1004E000F819E718F6DFFA8068E709F208DFFA8002
:1004F0006080E388828C83E709F0A3DFFA8052E30F
:1005000009F608DFFA804AE9D398500EE92FF9E896
:100510002FF819E318F2DFFA8037E309F208DFFA5F
:10052000802F88828C83E309F0A3DFFA80238982FD
:100530008A83E0A3F608DFFA801789828A83E4932E
:10054000A3F208DFF9800A89828A83E0A3F208DF38
:10055000FA0205E080B180F980A580C680DC80F1D8
:1005600080738010808380E98087808780D980E1D4
:1005700080BC8073D3E998EA9C5039E92FF582EA70
:100580003BF583E82FF8EC3BFC0582D5820215830E
:100590001582E493C8C582C8CCC583CC0582D582B8
:1005A0000215831582F0C8C582C8CCC583CCDFD9BB
:1005B000DED7802E89828A83ECFAE493A3C8C582B1
:1005C000C8CCC583CCF0A3C8C582C8CCC583CCDF5A
:1005D000E9DEE7800D89828A83E493A3F608DFF9D8
:1005E000ECFAA9F0EDFB22D3E998EA9C5038E92F08
:1005F000F582EA3BF583E82FF8EC3BFC0582D582D7
:100600000215831582E0C8C582C8CCC583CC05829B
:10061000D5820215831582F0C8C582C8CCC583CCAB
:10062000DFDADED880BC89828A83ECFAE0A3C8C511
:1006300082C8CCC583CCF0A3C8C582C8CCC583CC46
:10064000DFEADEE8809C809888F08E83EF60010E00
:100650004E608DED2402B404005085F582EB240237
:10066000B4040050E123234582AB832390055473E7
:10067000E6FC08E6FD08E6FE08E6FF22E2FC08E2EA
:10068000FD08E2FE08E2FF22E493FC740193FD748E
:100690000293FE740393FF22ECF608EDF608EEF6E3
:1006A00008EFF622ECF208EDF208EEF208EFF22283
:1006B000E6FB08E6FA08E6F922EBF608EAF608E9AE
:1006C000F622E2FB08E2FA08E2F922EBF208EAF28B
:1006D00008E9F222E493FB740193FA740293F9227D
:1006E0009001EF1203CAE49001F2F0A3F0FB7A004C
:1006F00079299001F51203CA900086E0247F7003E7
:100700000207F324FE70030207A314700302089487
:1007100024FC700302086F24026003020907120F11
:10072000FA640845F060030207AF7F117E001238BB
:10073000D874FF121035701212103570087F201215
:10074000392902091B1220D480031210E49001F50C
:100750001210EA9001F51203AA900004740212012B
:10076000CC74021210F7E41201CC900007E41201DD
:10077000CC74031210B61210BCE92407F9E43AFA5B
:100780007D087C001218E09001F51203AA7D097C17
:100790000012091E9001F512101D900082120361D3
:1007A000020915120FFAC39404E5F09400500C12DC
:1007B00010497403F0122E3802091B90008BE07070
:1007C00002A3E0700F120FF11210D195F050030246
:1007D000091580161210BC1229AA90008DE0FEA304
:1007E000E01210D19E50030209151210C2120EB071
:1007F00002091590008BE07002A3E07020120FF147
:10080000FFAEF01238D8120FFAFF1210ACC39FECF3
:1008100095F040061210C20208FF7F01221210ACB0
:10082000243BFFE43CFED3EF940EEE9401400D1206
:1008300010C21218E0E490008BF0A3F01210BC126A
:1008400029AA90008FE0FEA3E0FF90008CE02FFF2C
:1008500090008BE03EFED390008EE09F90008DE0F4
:100860009E50091210C21210AC0208FF7F01221222
:100870000FFA45F060091210497403F0122E381275
:100880001087E4FDFC12091E7D2C7C017F051238C7
:100890003B0209151210BC90000712018D9001F463
:1008A000F0D3940A4007121049740280649001F456
:1008B000E0FB602C1210E490007D120361EBFF7EE0
:1008C000007C037DE81201EEEF2512FFEE3511FEEC
:1008D000E43510FDE4350FFC9000461203618013EF
:1008E00012105690004612036190007D12036D00B5
:1008F0000000009000867484F0121087E4FDFC1262
:1009000018E0123764800E7F1812392912104974CA
:1009100001F0122E389001A1E0FF227F0022121870
:10092000E0123764229001E91203CA12108D90017F
:10093000EC1203CA12101A120AD2120FE530E73471
:10094000121000D394B9E5F0941D400812110174FF
:1009500003020A4B120FE5648660321202EB12109A
:1009600039602A9001A1E0602412101A9001FF74EE
:1009700006020A4B121043E94A4B7003020AD112D5
:10098000104390000812018D7003020AD112101A50
:10099000EC4D4E4F7008121101740B020A4B1210ED
:1009A0001A121094702C120FE5B48603D38001C381
:1009B0004008121101740B020A4B7B017A00797313
:1009C0009001EC1203CA90007312036DFFFFFFFF4A
:1009D000802B120FE530E725121043E94A4B701DBA
:1009E00012101A12340912101A120AD2121043E904
:1009F0004A4B7003020AD11210431210B5120FE5D0
:100A0000B486061210431210B512101A900082120A
:100A100010539000871210531210439000041203D9
:100A200025900046120355D31202B44022120FE55E
:100A30006486601B1202EB90007D12103CC37001B3
:100A4000D3400C12101A9001FF7406F0022E3812D7
:100A50000FE5FF30E72412104390000812018D705B
:100A600019121043900009EF1201CC120FE590000B
:100A700086F090000474FFF08044121056900087B6
:100A8000120361120FE5FF900004E0FD3395E0FCD6
:100A9000ED2401FDE43CFCED6F7001EC600C1210E4
:100AA000497404F0122E3802361C120FE59000042F
:100AB000F012104390000912018D900086F0900111
:100AC000E91203AA1206E0121043900008EF120187
:100AD000CC221230D79001EC1203CA229002D2EE3F
:100AE000F0A3EFF0A374FDF012003EFFC413540313
:100AF0006003020B99EF12006C20E003020B9912C5
:100B0000003E541F64016003020B99A3E024FA60C5
:100B100003020C2512004BFCA3E04C6003020C25E1
:100B20008F828E83A3A3E0642270287BFF7A3B79B7
:100B3000E09002D2A3E02406120055FEA3E0FFD30A
:100B40009422EE9400400A7C007D227E007F228069
:100B50003E803C9002D2E0FCA3E0FDF5828C83A3B2
:100B6000A3E064216003020C257BFF7A3C7926ED2B
:100B70002406F582E43CF583E0FEA3E0FFD394096C
:100B8000EE9400400A7C007D097E007F0980009081
:100B900002D9EEF0A3EF020C1812003EFFC413546A
:100BA0000364016003020C25EF541F640170761288
:100BB000004BFCA3E04C706D8F828E83A3E024FE7B
:100BC000602224F8705F12005DA3E07058EF2406E5
:100BD000120055FEA3E04E704C12003E12006C2035
:100BE000E043803C12005DE0FCA3E04C7037EF2452
:100BF00006120055FEA3E064014E702912003E1259
:100C0000006C30E0209003757418F07B017A037952
:100C1000759002D9E4F0A304F0C203E4FF121A8431
:100C2000E49002D4F09002D4E0FF22C0E0C0F0C013
:100C300083C082C0D075D000C000C001C002C00314
:100C4000C004C005C006C007E5C054F0F51B30C2A3
:100C500003020D46E51B24807003020CF024C060E3
:100C60001424E06003020D46E50B54014513F5C260
:100C7000C2C5020D4220C107D2C4430B40806CE5BF
:100C80000B30E003020D42E50EC3950A501B9003A2
:100C9000E41203AAAF0E050E123847E50ED39401F5
:100CA0004024AF1C1236D7801DE50B30E21DE5094C
:100CB000C3950C50169003E81203AAAF0905091258
:100CC0003847FF1236D7851CC28077AF140514EF62
:100CD00014600E14601324027068120D63F5C28054
:100CE000619003EBE0F5C28059D2C4530BFD8052F2
:100CF000E50DC39508504185C21C9003E11203AA7B
:100D0000850D82758300E51C1201CCE50D70031280
:100D100036C1E50824FEFFE50DC39F50159003EB97
:100D2000E0FEA3E0FFAD1C1224E19003EBEEF0A384
:100D3000EFF0050DD2C1800A120D63530BFDC2C145
:100D4000D2C4C2C08002C2C0D007D006D005D00431
:100D5000D003D002D001D000D0D0D082D083D0F048
:100D6000D0E0329003EBE0FEA3E0FF1225E6900313
:100D7000EBEEF0A3EFF0229002021203CA78057C9A
:100D8000027A3779C0122F9C1238E190026BEEF094
:100D9000A3EFF0122662EF600C7F027E001238D8BB
:100DA0007E697F8522900202122F769002701203D4
:100DB000CA122FB59002731203CA7A02790712166B
:100DC0002FBFFF0C7F027E001238D87E927F102248
:100DD0001231DE7B017A0279057D01122C799002B5
:100DE00002122F767D20122C79122F967D20122C44
:100DF000797B017A0279077D24122C797B017A02B2
:100E000079067D01122C79122FB57D40122C7912B2
:100E100032967B007A0079009002701203CA900229
:100E200002122F769002731203CA122F96122D33DC
:100E3000BFFF057E697F84221238E1AC06AD071240
:100E40002F9612351BEF2469FFE433CF2DCF3CFEE4
:100E50001238D89002057405F07D02120EA4122FEC
:100E6000B57D407C0012395B9002057424F07D0151
:100E7000120EA47B017A0279077D247C0012395B73
:100E800012391CC003C002C0011238E1AC06AD0724
:100E9000D001D002D00312395B122F96121D7D7E35
:100EA000907F00227B017A0279057C0012395B2257
:100EB0009001F81203CA9001FB1203CA122F81900D
:100EC0000005122F8D78081202D8C004C005C00694
:100ED000C007122F81900006122F8DD003D002D0B0
:100EE00001D0001202A7C004C005C006C007122F1F
:100EF00081900004122F8D78101202D8D003D002F6
:100F0000D001D0001202A79001FE120361123957DE
:100F1000122F811201746008120FC9746E020FAC97
:100F2000122F8190000112018D24FE603714605948
:100F30002443607324C1606F24FE7075E47F40FE1B
:100F4000FDFC9001FE120355C31202B46007120F9C
:100F5000C974678057122F81E92407F9E43AFA121D
:100F60000D77803B122F81E92407F9E43AFAC00398
:100F7000C002C001122F8190000212018DFDD0012C
:100F8000D002D00312133280169001FE120349ECF6
:100F90004D4E4F6007120FD7746780101236031240
:100FA0002FAFEE8FF08012122FAF749075F000808B
:100FB00008120FD7746D75F00012024E122FAF7D1C
:100FC000027C0012395B0239417F027E001238D860
:100FD0009001FB1203AA227F027E001238D89001F2
:100FE000FB1203AA229001E91203AA900004020155
:100FF0008D9001EF1203AA1233D99001EF1203AAC8
:1010000090000502021690004B75F00AEB12039E49
:10101000EA75F00AA42583F583229001E91203AA58
:101020000202EB9001E9E075F00AA4244BF582E49A
:101030003400F58322FFFEFDFC900082120355C3AD
:101040000202B49001EC0203AA90008212034990BC
:1010500001FF22120361AF12AE11AD10AC0F227E60
:10106000017F207B017A0079810204A27E007F400B
:101070007D007B017A0179A422FD9002791203AAF6
:10108000ED9000040201CCE4FFFE1238D87B007A18
:101090000079002274FFFBFAF9F8C30202B475F07C
:1010A0000AA42453F582E43400F5832290008BE0F7
:1010B000FCA3E0FD22E49000080201CC9001EF02C5
:1010C00003AA7B017A007993229001F8E0FEA3E065
:1010D00022FFC390008CE09F90008BE022E475F02B
:1010E000010202009000820203491203AA02030BCC
:1010F00090004B75F00A229000051201CC9000067A
:10110000221202EB9001FF22E4FDFC9002D774FF53
:10111000F09003BAE0648060030212199003BCE00F
:10112000FAA3E09002D3F0EAFFE460030211F5EFC6
:1011300024FE602814604A240260030211F5900224
:10114000D3E060030211F59003D8122B6B9003D803
:101150001203AA1201747C00FD0211F59002D3E083
:1011600060030211F59003DB122B6B9003DB12037B
:10117000AA900002120216FAE5F0FFEAFCEFFD80E9
:10118000749003DE1203AA9002D3E0FF75F003A46B
:10119000F58285F0831203F3122B6EEF700CFC7D49
:1011A000049003C2E05480F0804B122B5CFF4E6031
:1011B0000AEF64097003EE6404703A9003B7E0FF2D
:1011C0009002D3E0C39F502DA31203AA90000112F6
:1011D000018D7C00FD120174547FFF9003C2E05426
:1011E000804FFFF09002D5E475F001120200EF4449
:1011F000809003C2F0ED4C60209003C0E0FEA3E0BD
:10120000FFC39DEE9C5004AC06AD079002D41203C0
:10121000AA12353AE49002D7F09002D7E0FF22E418
:10122000F51DF51E12304C7597047597A57B007A55
:101230000079291236AAD2AF7597A5E5EF30E305FC
:101240007F19123929E4F52112393BE4FDFC7F01B5
:1012500012383B7597A5123092122AEBE522700ED8
:101260001238BCEF6005123935800312393B7F021A
:1012700012363540257F01123635401E9003EDE0D1
:10128000640160167B017A0379769001EDE4F0A3A6
:101290007440F0D2007F02122170122A829003ED76
:1012A000E01470299003EF1203AA121536EF7F00A5
:1012B00070027F019001E8EFF060099003EF1203E4
:1012C000AA1209259003EDE0B40102E4F09003EEC8
:1012D000E06080E4FFFE051EE51EAC1D7002051DEA
:1012E00014F5828C83E4F07597A50FBF00010EE41E
:1012F000B507E3EEB404DFE49003EEF0AE11AF12F5
:101300009001E4E0FCA3E0FDC3EF9DFDEE9CFCC377
:10131000ED94F4EC9401400A9001E4EEF0A3EFF0B8
:1013200080047E007F00EF4E60030212537597A584
:1013300080CA9002021203CA900205EDF0A3740164
:10134000F0ED6407701A7F02FE1238D8122F871250
:101350002FA71226DCEF7E6970037F85227F84220F
:10136000900205E0B4032A122F8790004012018DED
:10137000B4241E122FA7C003C002C001122F739005
:10138000020E1203CAD001D002D0031226DCEF6095
:101390000C7F027E001238D87E6A7F80221226627D
:1013A000EF600C7F027E001238D87E697F852212A2
:1013B00027569002071203611231DE122F737D202F
:1013C000122C797B017A0279067D01122C797B013E
:1013D0007A0279077D04122C79122F877D20122C36
:1013E00079123296122F87122FA79002701203CA19
:1013F000122F739002731203CA122F87122D33BF5C
:10140000FF057E697FA422122F8712351BEF240768
:10141000FFE433FE1238D87B017A0279067D017C25
:101420000012395B7B017A0279077D047C00123956
:101430005B122F87121D7D7E907F00229003C9E0F2
:101440001392039003C6E0FEA3E0FFC39440EE9422
:101450000040047F4080009002D2EFF0A3F09003A0
:10146000C2E0FF547F64017056EF30E721A31203FE
:10147000AAC2057D02E4FF12293575F002122D0C77
:101480009002D2E024FEF09003C2E0547FF0E4909A
:1014900002D4F09002D2E0C313FF9002D4E0C39FC5
:1014A0005038122D2112152C75F001122D0C7BFFD6
:1014B0007A3C79A412152C9002D4E004F080D490E8
:1014C00002D2122D1FC205E4FF1229359002D2E08C
:1014D000FF9003C4E48FF01202009003C9E054FBB4
:1014E000F09002D3E0FFFD122D279400FCF0A3ED55
:1014F000F04C701EEF6440601975AE1175AF0AE5CF
:10150000AE20E7FB122D05E49003C2F09003C9F072
:10151000800B75AE1175AF02E5AE20E7FB30030B13
:101520009002D3122CF0FDFF1235B222C2057D01CC
:10153000E4FF122935229001E91203CA9000041237
:10154000018D24DE605424FE70030215D3249C70A8
:10155000030215DE1470030215FA246860030216F4
:101560001F123005E41BFAFD7F1B121F85EF90014F
:10157000E9701D123038A801FCAD039001ED120393
:10158000AA7E007F2012064812302D75F0208005BB
:10159000123030F5F012026D80329001E9123038CD
:1015A000FA1230427414F07B00123016E41BFAFD7C
:1015B0007F16121F8512302D75F00112026DEF7F1C
:1015C0000070027F01900007EF1201CC7D40122FC6
:1015D0002A804F7D2C7C017F0512383B80441230DD
:1015E000057F021216259001ED1203AA120174F470
:1015F0007030F876A575EF1280287E007F047D009C
:101600007B007A0079291204A27B007A00792912E2
:1016100030427404F012301A7F1212162580037FB4
:1016200000227F01227B407A007D02121F852290DA
:10163000026D1203CA7597A51219B57446F07A02A5
:101640007976121A4FFD7F1B121F85EF60037FFF13
:1016500022121A6F1231DE9002701203AA7D20123C
:101660002C799002771203AA7D04122C799002E95A
:101670007405F012329690026D1219FE7F04120664
:10168000487F041219E1787E7C021219D27F047E11
:1016900000747A2FF58274023EF583C083C08212F3
:1016A0001A32D082D083F00FBF00010EEF64244EB7
:1016B00070DF7597A59002A1121A297B017A027931
:1016C0007A122E8B121A19A801FCAD031219D4122A
:1016D0001A26121A19121A7A7A02797A7F027E0071
:1016E000122A18EF4E60037FFF227F241219E112A5
:1016F00019B57446F00B7A027976A31203CA0B7AF5
:1017000000E4FD7F40121F85EF60037FFF229002FF
:10171000731219FE7F401206487F0022C2037F0128
:101720001238521237FD501575AE94E5AE20E7FB26
:1017300053AFBFE5AE20E70302180780F612382347
:1017400040030218071239239002D2EFF09003D61B
:10175000E06403600EA3E04402F09002D374F9F059
:101760000217E69002D2E0FDFFC39003D5E09F9000
:1017700003D4E0940050139003D67401F0A3E04426
:1017800002F09002D374F2F0805C9003D11203AAAD
:101790007F01122C179003D7E054FDF09002D2E0A5
:1017A000FFFD7C00C39003D5E09DF09003D4E09C46
:1017B000F09003D2EC8DF01202009003D4E070029E
:1017C000A3E06005EF644060089003D67401F0D296
:1017D00003E49002D3F075AE94E5AE20E7FB53AF7F
:1017E000FEE5AE20E7FB9003D7E030E01A300303BC
:1017F00054FEF09002D3E0FD9002D2E09003D412A8
:1018000034E07F021235B222C0E0C0F0C083C08253
:10181000C0D075D000C000C001C002C003C004C069
:1018200005C006C00712385D9002CEEFF01238688E
:101830009002CFEFF01238739002D0EFF012387EA2
:101840009002D1EFF09002CEE0FC30E3379003C974
:10185000E0FE30E1089003C8E06403600BEE30E284
:101860000E9003C8E0B402079002CFE04401F0906C
:1018700003D7E030E10E9003D6E0B403079002D026
:10188000E04402F0EC30E2031232599002CEE03034
:10189000E1031238EA9002CEE030E003123786907E
:1018A00002CFE030E10312202F9002D0E030E103BC
:1018B00012171C9002CFE030E003121E2E9002D1CE
:1018C000E0FF123852D007D006D005D004D003D0A4
:1018D00002D001D000D0D0D082D083D0F0D0E0327E
:1018E0009002741203CA900277ECF0A3EDF012108C
:1018F00072A31203CA9001A17401F0900005E07078
:10190000541210E49002791210EA9001A2E0FEA3B2
:10191000E0FF4E701F900086E0121079900091E079
:10192000FDA3E0900005CD8DF012026D90000574CE
:1019300007F08021EF141210799000057405F0EF84
:1019400024FFFFEE34FFFED3EF947FEE94004005BA
:101950007F12023929900274E475F0011203B31268
:101960000174FF900005E0FE04F074A42EF582E4FB
:101970003401F583EFF090008F1210DD900005E048
:10198000B44016E4F09001A21210DE1210727D40F5
:10199000122F2A12106C1204A2900277E07002A398
:1019A000E0601190027774FFF5F012020045F060DC
:1019B000030218FB227B007A0079009002B5120323
:1019C000CAE49002B8F07A007929A31203CA9002FF
:1019D000BC227D019002EB1203AA7E007F2002064A
:1019E000487E007A02797A7D007B010204A27B01A5
:1019F0007A03792F9002B51203CA9002B82212031B
:101A0000AA900277A801AC02AD031203AA7E0022BD
:101A100090020C1203AA0202EB90026D1203AAE9D3
:101A20002404F9E43A229002A37BFF7A3B799602E0
:101A300003CAE0FD74BB2FF582743B3EF583E4934B
:101A4000FCED6C227E007D007B007A007929220B60
:101A5000A31203CAE41BFA227446F01B7A00790031
:101A6000A30203CA1203AA8F8275830002018D901C
:101A700002E87401F0A37404F022FA9002A61203A3
:101A8000CA7B01229002D5EFF0A31203CA9002DDB7
:101A9000E5A7F09002D5E0600814600580007FFCA7
:101AA000229002D5E0FE600B9003B8E0640660036C
:101AB0007FF722EE9002DB122BB4FF64016009EF86
:101AC0007FFEB405027FFB2212390E9204122BE135
:101AD0009002D61203AA9002DB122BF89002D9E0F2
:101AE000FCA3E0FD8F828E83A3A3A3ECF0A3EDF013
:101AF0009002DB122BD37402F0A203E4335401FBF7
:101B0000EF2406122BDAE054FE4BF09002D5E014DD
:101B1000600C0470299003C9E04404F08020D3EDE8
:101B20009440EC940040047D4080069002D9A3E0EC
:101B3000FD9003CA1203AAD2057F01122935300491
:101B400003122BE89002DDE0F5A77F00229002D37C
:101B5000122B747004A3E064026003021C0D900356
:101B6000BCE07002A3E06003021C0D9003BAE0FF2A
:101B700020E703021C0D122B7C5003021C0DE49085
:101B800003F2F0A3F0EF541F14602214603024021B
:101B900070699003BEE07002A3E0705F12395E507E
:101BA000499003F2E04401F0A3E0F08049C39003C0
:101BB000BFE094019003BEE09400503F8038122BA8
:101BC0005CFF547F4E70099003B8E0B40402802695
:101BD0009003B8E0B40624EF247F60102480701BCB
:101BE0009003D6E0B40603122BA0800A9003CFE046
:101BF000B40603122BA0E49002D3F09002D3E0705D
:101C00000C7B017A0379F27D02FC12353A9002D303
:101C1000E0FF229002C11203CA9002C4EDF09002CC
:101C2000CDF07FC01234659002C8EFF0E50B30E6CE
:101C3000037FFF22E50B30E4057F0612392990026D
:101C4000C4E0FF9002C8E0FED39F502DEEC3940481
:101C5000402712369EEE7E0029F9EE3AFA90FFFEFA
:101C6000120216FAE5F0FFEAFE9003EBE06E700355
:101C7000A3E06F60087F1580177F1680139002C85D
:101C8000E0B4041212369E90000112018DFF60062E
:101C90001239297FFF221236A4E94A4B60279002AD
:101CA000C8E024FDFF1236A4EF1201BA12369EE9F5
:101CB0002401F9E43AFAC003C002C0011236A4902C
:101CC00000011204239002C8E0FF229002D374FFA7
:101CD000F09003BCE0FCA3E0FDEC6003021D771272
:101CE0002B646003021D779003C0E07002A3E060E4
:101CF00003021D779003BEE07002A3E070799003A9
:101D0000B8E064047032ED4C600F122B50FF90036A
:101D1000BCE07003A3E06F705E122BAA122B50FF81
:101D20009003BCE0B4000FA3E0B5070AD20312355C
:101D3000787F0612319E803A122B8F703A9003BC46
:101D4000E0FEA3E0FF4E600E122B50FD7C00EFB5CD
:101D50000525ECB50621122BAA9003BCE07002A366
:101D6000E0700A7F0412319E1233098005C203120B
:101D70003578E49002D3F09002D3E0FF2290026D18
:101D80001203CA90002012018D7F0030E7027F010C
:101D9000900270EFF090026D1203AA1201747F009E
:101DA00030E7027F01900271EFF078727C027A379F
:101DB00079BE122F9C900271E0FF900270E02FFF1D
:101DC000900273E02FF07B017A0279727D027C0031
:101DD00012395BE4900273F0FC121E22900271E053
:101DE000FE2420A3121E0D1203AA7D207C001239AE
:101DF0005B7C00121E22900270E0FE242090027292
:101E0000121E0D122F767D207C0002395BF07B01C3
:101E10007A027972EE2401FDE433FC12395B900200
:101E20006D227BFF7A3779BC7D0112395B22E4FF9A
:101E30001238521237D640051237C9501C75AE11F0
:101E4000E4F5AFE5AE20E7FB75AE1175AF80E5AE0A
:101E500020E7FB122D05E4A3F0123817506D900314
:101E6000C9E0FF30E30280609003C8E0640170487D
:101E70009003C2F0122D8D7E037FBA120ADCBFFDE3
:101E8000159003BAE0FFC413540370051227CF80E6
:101E90003A12367C80359003BAE020E72E9003C8D2
:101EA000E0640360269003C0E07002A3E0601C9031
:101EB00003C9E04408F080139003C8E0B40305129E
:101EC00022A480079003C9E04402F09003C8E0B464
:101ED00002081237E3400312143C229002D3122B63
:101EE000747002A3E06003021F7F122B6424FE6063
:101EF00003021F7F9003BCE07002A3E06003021F97
:101F00007F122B5C547FFF4E700C122B7C4007E439
:101F10009002D3F08069C3EF9403EE9400506012F6
:101F20002B8F705B9002D3122B961238529003BF06
:101F3000E030E70B75AE1175AF40E5AE20E7FB90E2
:101F400003BFE020E71875AE94E5AE20E7FB53AF82
:101F5000DFE5AE20E7FB43AF80E5AE20E7FB900373
:101F6000BFE0247F600E248070159003D6E06403E8
:101F7000600D80089003CFE0640260037401F0906C
:101F800002D3E0FF229002B1EFF0A3EDF0A3EAF05C
:101F9000A3EBF0E49002C0F01237759002B1E0FFBD
:101FA000A3E0FD9002B51203AA9002C51203CA90E5
:101FB00002B8E09002C8F09002B3E0FAA3E0FB128E
:101FC0002FBCBFFF1A7F0A7E007D007C0012321CEE
:101FD0009002C0E004F0E0D3940840BF7FFF22905D
:101FE00002BCE0FDA31203AA9002C51203CA90022C
:101FF000B91203AA121C13EFF4702E9002C0E00471
:10200000F0E0D3940540037FFE2212392FEF700ACF
:102010009002B1E0FF1235CE80C59002B1E0FFE43E
:10202000FCFDFE12321C021F9B1238B27F00227F81
:10203000011238521237F0501075AE11E4F5AFE5C9
:10204000AE20E7030220D380F69003CFE064026065
:10205000030220D31234F09440EE940040047F40F9
:1020600080009002D2EFF07E00C39003CEE09FF09C
:102070009003CDE09EF09003CBEE8FF01202009023
:1020800003D0E01392031234F09400EE9400402247
:10209000D3EF9440EE940040047D4080069003CD41
:1020A000A3E0FD9003CA1203AAD2057F01122935CD
:1020B000800D9003D0E054FEF09003CF7401F03017
:1020C00003119002D2E09003CD1234E0E4FD7F01D1
:1020D0001235B222E49001F8F0A3F01210C9FFC348
:1020E0009404EE64809480501990005375F00AEFC8
:1020F00012039EEE121011E0600E9001F81210DD36
:1021000080D9E4FFFEFDFC2290004AE0FF04F0E4E9
:10211000FCFDFE90000012035512029A9001F8E0B7
:10212000FAA3E0FB1210F012100D12036112100658
:10213000120349E412109660CF1210C91210F01267
:10214000039EEE12101112034912109460BA12107D
:10215000C9FF90005375F00A12039EEE121011E4AD
:10216000F01210F0EF12039EEE121011120349222A
:102170009001EA1203CA9001F1E5A7F0EF6009248B
:10218000FE600580007FFC22EF600B9003B8E064E6
:102190000660037FF722EF9001EF122BB4FF64017A
:1021A0006009EF7FFEB405027FFB2212390E920117
:1021B000122BE19001EA1203AA9001EF122BF89082
:1021C00001EDE0FDA3E08F828E83A3A3A3CDF0A356
:1021D000EDF09001EF122BD37403F0A200E433541E
:1021E00001FDEF2406122BDAE054FE4DF09001EFD2
:1021F000E0FEA3E02406122BDAE054F7F0300103EE
:10220000122BE89001F1E0F5A77F00229001EA127D
:1022100003CA9001EDE5A7F0122BE1123962E4FF49
:1022200074B62FF582E43403F583E4F00FEFB42B9A
:10223000EF122BF21203D39003D8122BEF9000036E
:102240001203F39003DB122BEF9000061203F390BE
:1022500003DE122BEF90000912018D9003B7F012EC
:102260002C1075A72043B32075A72053B57F75AEFA
:102270000175AF08E5AE20E7FB75AE0B75AF0FE556
:10228000AE20E7FB12364E9003B87403F0122BE831
:102290009001EDE0F5A775AE0175AF01E5AE20E761
:1022A000FB7F00229003C9E0139203123889900249
:1022B000D2EFF0C39003C7E09F9003C6E0940050B4
:1022C00010122D05A3E04402F09002D374F2F080C6
:1022D000539002D2122D1FE4FF122C179002D2E06D
:1022E000FFFD7C009003C4EC8DF0120200122D273C
:1022F0009CFCF0A3EDF0E49002D3F0ED4C701AEFEB
:102300006440601575AE1175AF48E5AE20E7FB126D
:102310002D05A3E054FEF0800B75AE1175AF40E5BE
:10232000AE20E7FB30030F9002D3E0FD9002D21203
:102330002CF0FF1235B2229002D3122B747002A33C
:10234000E060030223C3122B6424FE7076122B5C20
:10235000547FFF4E700C122B7C4007E49002D3F0A8
:102360008061C3EF9403EE940050589003BCE0707A
:1023700002A3E0704E122B8F70499002D3122B965D
:102380001238529003BFE030E70B75AE1175AF10F5
:10239000E5AE20E7FB9003BFE020E71075AE94E5C3
:1023A000AE20E7FB43AF20E5AE20E7FB9003BFE0A4
:1023B000247F60092480700B9003D680039003CFA4
:1023C0007406F09002D3E0FF22787FE4F6D8FD7522
:1023D000817202241002121FE493A3F8E493A34035
:1023E00003F68001F208DFF48029E493A3F8540790
:1023F000240CC8C333C4540F4420C8834004F4568B
:10240000800146F6DFE4800B0102040810204080C2
:10241000902564E47E019360BCA3FF543F30E5093E
:10242000541FFEE493A360010ECF54C025E060A8C2
:1024300040B8E493A3FAE493A3F8E493A3C8C58255
:10244000C8CAC583CAF0A3C8C582C8CAC583CADFC3
:10245000E9DEE780BEAE07E4FB123852300513A870
:102460000674107E00088005C333CE33CED8F9FF42
:102470008013AF0674207E00A807088005C333CE02
:1024800033CED8F9FFD3ED9FEC9E5004EB4480FB94
:10249000300604EB4440FB300421EB4420FB3005C4
:1024A000034404FB75AE1175AF40E5AE20E7FB7544
:1024B000AE128BAFE5AE30E72780F975AE1475AF7D
:1024C00080E5AE20E7FB75AE15AF038FAFE5AE201C
:1024D000E7FB20050B75AE12E4F5AFE5AE20E7FB98
:1024E00022AB07AA06EB6DFB30E0051234388003FF
:1024F000123448AA06AB07EB30E0051234388003EB
:10250000123448AA06AB07EB30E0051234388003DA
:10251000123448AA06AB07EB30E0051234388003CA
:10252000123448AA06AB07EB30E0051234388003BA
:10253000123448AA06AB07EB30E0051234388003AA
:10254000123448AA06AB07EB30E00512343880039A
:10255000123448AA06AB07EB30E00512343880038A
:1025600012344822040F000000000113004303E46A
:10257000000000010A00010E00010800010D0043E7
:1025800003E10000004303E8000000010C00010922
:10259000004103E7004203EB0000011400010B00BF
:1025A0004400460000000044007D0000000041009F
:1025B0004A00410005004201A200004101A100447F
:1025C0000000CAFEBABE4203F402324302E3010233
:1025D000EF4102E7004102E6004102EE004102E95C
:1025E000004102E80000AD07AC06EC5455FEED5486
:1025F0005525E0FBEE33FAEC54AAFEED54AAFFEEAB
:10260000C313FEEF1312345EFDEC5433FEED54336E
:102610007802C333CE33CED8F9FBAA06EC54CCFEF5
:10262000ED54CC7802CEC313CE13D8F912345EFD2C
:10263000EC540FFEED540FC4F8540FC868FBEEC401
:1026400054F048FAEC54F0FEED54F0FFEEC4F854A8
:10265000F0C868FEEFC4540F4812345EFAECFFEA8B
:10266000FE227F017E007D007C0012321C1238BCED
:10267000EF60057597A580F5AF12AE11AD10AC0FE8
:1026800090026D1203611226D21238BCEF702F1225
:102690002AEB12309290026D120355C3E5129BFF94
:1026A000E5119AFEE51099FDE50F98FCE47BB87AF8
:1026B0000BF9F8C31202B440057597A580CB123808
:1026C000BCEF600512393580061226D27F01227FC9
:1026D00000227D777C017FFF12383B2290020B1293
:1026E00003CA121A6F1231DE90020E1203AA7D2065
:1026F000122C7990020B1203AA7D04122C799002FD
:10270000E97405F01232967E007F047A0279151280
:1027100019E778197C021219D27F047E0074152FF4
:10272000F58274023EF583C083C082121A32D082D1
:10273000D083F00FBF00010EEF64244E70DF121A39
:102740002690020B121A1C121A7A7A0279157F024D
:102750007E00122A18221219B57446F00B7A0279FB
:102760000B121A507D017F24121F85121A10E4FFEC
:10277000FEE4FC78081202C5C004C005C006C0070C
:10278000121A1078181202C5D003D002D001D0005E
:102790001202A7C004C005C006C007121A10E4FF49
:1027A000E4FDFC78081202D8D003D002D001D0009A
:1027B0001202A7C004C005C006C007121A1078187C
:1027C0001202D8D003D002D001D0001202A722E416
:1027D0009002D2F09003BBE012047C27FA0027FF9E
:1027E00001280403280905280E06281308281809BB
:1027F000281D0A28220B0000282C121B4D802612AF
:102800001EDB8021122337801C12284780171211EB
:10281000088012122DE4800D121CCB800812315C4E
:1028200080031232D29002D2EFF080069002D2746E
:10283000FFF0E4FF1238529002D2E0B4FF031236E8
:102840007C9002D2E0FF229002D374FFF09003BC90
:10285000E0FEA3E0FFC39480EE9400505C9003C0C0
:10286000E07002A3E07052122B64704D9003BEE042
:102870007002A3E070439003B8E0B4030BEF4E6026
:102880001D7F0412319E80169003B8E0B4041490AA
:1028900003BCE07002A3E070057F0312319EE49058
:1028A00002D3F09002D3E07010F5AE9003BCA3E029
:1028B0004480F5AFE5AE20E7FB9002D3E0FF229025
:1028C00002D8EFF0E49002DBF0A3E5A7F09002D885
:1028D000E0FF6005C3940340089002DB74FCF080C5
:1028E0004212390E9204122BE19002D8E0122C040D
:1028F000FEAF01A3122BC2640160289002D8E0242D
:10290000FE600A04700C7F0112333F80057F0112C4
:1029100033739002D9122BD37401F0EF2406122BDB
:10292000DAE4F0300403122BE89002DCE0F5A79023
:1029300002DBE0FF229002DEEFF0A3EDF0A3120332
:10294000CAE5AE20E7FB9002DEE04420F5AE90023F
:10295000E0E01460142403601C14602314702A1235
:1029600034D7AD0112370380201234D7AC02AD0149
:102970001236ED80141234D7AD01123717800A12C7
:1029800034D7AC02AD0112366530051D9002DEE091
:10299000FFD39400401312385275AE91E5AE20E794
:1029A000FB43AF01E5AE20E7FB229001F81203CA1A
:1029B00090008CE0243BFF90008BE03400FED3EFCE
:1029C000940EEE940140197F171239299001F812E4
:1029D000101D9001FF747FF0122E387EFF7FFF22C2
:1029E0009001F81203AAE92405F9E43AFAC001902B
:1029F000008BE0FEA3E02493F974003EA801FC7D67
:102A000001D0017E007F3B12064890008BE475F0F8
:102A10003B120200E4FEFF2290029EEEF0A3EFF0D4
:102A2000A31203CA122EDCE4FF9002A3121A64FE62
:102A30009002A0121A646EFE74292FF8A6060FEFFA
:102A4000B424E6784D7C007D009002A61219D712BE
:102A50001A481219F47444F01219CA7428F00B7A47
:102A60000279A9A31203CA90029EE0FAA3E0FB7DBB
:102A7000407F46121F85EF60057EFF7FFF22E4FE48
:102A8000FF22E49001E9F09001E9E0FFC3940550D2
:102A900059EF12109EE0604A9001E9E075F00AA437
:102AA000244FF582E43400F583120355C3E5129BED
:102AB000FFE5119AFEE51099FDE50F98FCE47BEE29
:102AC0007A02F9F8D31202B4501812102312104CE3
:102AD0007405F0122E3812102312034912311A1203
:102AE000361C9001E9E004F0809D22E52260602020
:102AF0008630C3E5129526FFE5119525FEE5109574
:102B000024FDE50F9523FCE47B64FAF9F8D3120267
:102B1000B4503CD286E522603612380AF460301593
:102B20002222C3E5129526FBE5119525FAE51095BD
:102B300024F9E50F9523F8E528249CFFE52734FFC9
:102B4000FEE4FCFDC31202B44005C28612380A221C
:102B50009003DB1203AA90000502018D9003BEE0F2
:102B6000FEA3E0229003BAE0541F221203AA9002AF
:102B7000D40203CA74FFF09003C0E0229003B8E0CF
:102B8000C3940422D205C2067D407C007F012290BE
:102B900003B8E0640622F09003BEA3E0547FFF2256
:102BA0009003F27401F0A3E4F0229003BCA3E09040
:102BB00003B6F02275F007A424C3F9740335F0FEC0
:102BC000AF01F0A3EFF08E832405F582E43583F5A1
:102BD00083E022E0FEA3E0FF2405F582E43EF583D6
:102BE0002275A71053CEFE2275A71043CE012212E4
:102BF00003CA9001EA0203AAE0FEA3E0FFF5828E79
:102C0000830203CA75F007A424C3F9740335F022C4
:102C100075A72053B5F8229002D4EFF09002D61297
:102C200003CA9002D5EDF0D39400404CE5AE20E706
:102C3000FB9002D4E0FE44E0F5AE9002D6E01460D2
:102C4000152403602324FE702F9002D51234DAADD0
:102C500001AB060235959002D51234DAAC02AD0113
:102C60009002D4E0FB0234FA9002D51234DAAD01BE
:102C70009002D4E0FB123559229002A41203CA90AC
:102C800002A7EDF0E4A3F07597A59002A7E0FF146A
:102C9000F0EF60449002A4E475F0011203B3120156
:102CA00074FF9002EEE0FE04F0742F2EF582E434FF
:102CB00003F583EFF09002EEE0B440CE1219EE740B
:102CC00040F01219CA121A587B407D017F47121F2B
:102CD00085E49002EEF080B222F582E43CF583E0D8
:102CE000FCA3E0FAECFFEAFE9002D2E0FCA3E022B3
:102CF000E0FB7A009003C6E0FFA3E09002D9CFF09A
:102D0000A3EFF0E4229003C87401F0229003C4E41E
:102D1000020200F582E43CF583EEF0A3EFF022E03E
:102D2000FD9003C30203AAC39003C7E09DFD900377
:102D3000C6E02290026D1203CA90027AE4F0A374F6
:102D400002F09002701203AAE94A4B700890027ACE
:102D5000F0A3740FF01219B57446F00B7A0279766D
:102D6000A31203CA90027AE0FAA3E0FB7D807F41C0
:102D7000121F85EF60037FFF2290026D1203AA905D
:102D80000277121A047F401206487F00227E037FDA
:102D9000BA9002D2EEF0A3EFF0AA06F97B017D080B
:102DA000E4FF122C1775AE1175AF40E5AE20E7FBBE
:102DB0009002D2E0FEA3E0F5828E83A3A3122CDF63
:102DC000FDF5828C83A3A3EEF0A3EFF0ED240412B3
:102DD0002CD9FD2404122D13ED2406122CD924061F
:102DE000122D13227FFF9003BEE07002A3E0704714
:102DF0009003BCE07002A3E0703D9003C0E070045B
:102E0000A3E0640170319003BAE0FE30E729541F5B
:102E100070259003B8E0B404087BFF7A3C79A48065
:102E20000D9003B8E0B4060F7B017A0379B67D01FB
:102E30007C0012353AE4FF229001FB1203617B0112
:102E40007A0079069002001203CA7E007F407D005E
:102E50001204A29001FB1203499002001210EA90A2
:102E600002001203AA74BF1210819001FFE09000CB
:102E7000071201CCE41210F774011201CC7D40124C
:102E80002F2A9001FB12034902311A90029E12036D
:102E9000CA7F1C121A441204A278457C007D00905F
:102EA000029E1203AA7E007F241206481231DE9091
:102EB00002A11203AA7D20122C79752946752A4099
:102EC000752B02E4F52C752DEE752E01752F23FB65
:102ED0007A0079297D40122C790232967F20121ACD
:102EE000441204A2121A481219F47420F01219CADA
:102EF0007428F07A0279AD121A4F7D037F16121FE3
:102F000085EF6002801B1219B57428F00B7A0279E4
:102F1000ADA31203CA7A007D027F15121F85EF60F0
:102F2000057EFF7FFF22E4FEFF2290027C1203CA8F
:102F300090027FEDF0E4A3F090027C1203AA9002CD
:102F40007FE0FF9002D9E4F0A3EFF0C2037F01120B
:102F50001A84EF601D7F027E007D007C0012321C0F
:102F6000900280E0FF04F0EFD3941E40CB7F141258
:102F70003929229002021203AAE92420F9E43AFA3C
:102F8000229001F80203AA9002020203AA12018D04
:102F9000FFE4FCFDFE229002020203AA7D017BFFFA
:102FA0007E007F0202014EE92441F9E43AFA2290C0
:102FB00001FB0203AA7B017A02792B229002C3EA69
:102FC000F0A3EBF0AE057515039002C8E0FD2407F1
:102FD000F5168F17AF068F189002C4E0F51990020E
:102FE000C3E0F51A9002C51203AA1235E97B007AF4
:102FF000007915740612369712348DE50B7F003078
:10300000E6027FFF227B007A0079009002B512036E
:10301000CAE49002B8F07A007929A31203CA900298
:10302000BC7446F00B7A0179ECA30203CA9001E963
:103030001203AA900005E4221203AAE92407F9E486
:103040003A229002B51203CA9002B8229001E9E533
:10305000A7F01239471238F21238941238F91238A0
:103060009E12390012372B12373E12375112002EA2
:103070001238A81200761237951237A21237AF1203
:10308000394B12394F1239071238C69001E9E0F571
:10309000A72220813EE521146013047039752101B7
:1030A000851272851171851070850F6F22C3E5122C
:1030B0009572FFE5119571FEE5109570FDE50F9590
:1030C0006FFCE47BEE7A02F9F8D31202B450077574
:1030D000210222E4F521229001EF120361E4900124
:1030E000F3F09001F3E0FFC39405502AEF1210278C
:1030F0001203499001EF12103C70139001F3E07538
:10310000F00AA4244BF9740035F0FA7B01229001F7
:10311000F3E004F080CC12108D22900203120361C0
:10312000E4900207F0900207E0FFC39405502CEFF3
:1031300012102712034990020312103C70159002DE
:1031400007E0FB12102712036D00000000EB1210C5
:103150009EE4F0900207E004F080CA22122B5CFF8C
:103160007DFFC39401EE94005031A3E07004A3E00E
:10317000640170279003BCE07002A3E0701D90030F
:10318000BAE0B481169003B8E0B4060F7BFF7A3C36
:1031900079A47D017C0012353AE4FDAF052290024E
:1031A000D4EFF09003B8E09002D5F0C39405400B43
:1031B0009002D4E0940550031233099002D4E0FD4C
:1031C000B40506A3E09003B9F09002D4E0FE9003AA
:1031D000B8F09002D5E0FF6E60031238CF22E49081
:1031E00002EEF09002E9E0FD9002E8E0FB7A00C018
:1031F00002C0037B0079009002B51203CAE490027A
:10320000B8F00B7A03792F1219CA121A58D003D0CA
:10321000027F47121F85E49002E8F0229002C1125B
:103220000361AF12AE11AD10AC0F9002C512036175
:103230009002C5120355C3E5129BFFE5119AFEE506
:103240001099FDE50F98FC9002C1120355D31202AC
:10325000B440057597A580D822122D059003CF7430
:1032600006F09003D6F075AE0F75AF8FE5AE20E790
:10327000FB75AE0175AF01E5AE20E7FB75AE0B75D2
:10328000AF0FE5AE20E7FB30B1047F0380027F0182
:1032900012319E0239619002E9E070037402F090ED
:1032A00002E9E0FD9002EEE0FFFB7A00C002C003FD
:1032B0001219EEEFF01219CA7446F07A0279EAA3F5
:1032C0001203CAD003D0027F47121F85E49002E99F
:1032D000F0227FFF9003BEA3E0FE9003BCA3E0FDBD
:1032E000EEC3940150229003B8E0B4061B9003C0D3
:1032F000E07002A3E07011ED700E122B64FEBE01AF
:1033000007C203123578E4FF229002D7E5A7F01236
:10331000390E9203122BE19002D67401F09002D67E
:10332000E0FFC39403500B1228BF9002D6E004F0D4
:1033300080EB300303122BE89002D7E0F5A72212AE
:10334000385275AE1175AF08E5AE20E7FB75AE914A
:10335000E5AE20E7FBE5AF20E3F375AE1175AF08EE
:10336000E5AE20E7FB75AE91E5AE20E7FBE5AF20CB
:10337000E3F32212385275AE1475AF10E5AE20E7B4
:10338000FB75AE94E5AE20E7FBE5AF20E4F375AE48
:103390001475AF10E5AE20E7FB75AE94E5AE20E7FF
:1033A000FBE5AF20E4F322C0E0C0D075D000C0053B
:1033B000C006C007C2CFE5122401FFE43511FEE4C8
:1033C0003510FDE4350F8F128E118D10F50FD007DB
:1033D000D006D005D0D0D0E0329001A17401F09099
:1033E000008BE4F0A37439F0121000FF90008DE51B
:1033F000F0F0A3EFF0E92407F9E43AFA78937C00BF
:103400007D017E007F390206489001EF120361E4DE
:10341000FBFA900053121009E0700F9001EF1203B5
:10342000491210061203617F00220BBB00010AEB58
:1034300064044A70DD7FFF22EAC313FEEB13FFEE44
:1034400064A0FEEF6401FF22EAC313FEEB13FF2228
:10345000E49003EBF0A3F0F5149003E7E022FFEE15
:103460004AFCEF4B22E50B20E1FB1234504403F5FC
:103470000BE4F0F50D8F139002CDE0F5089003E119
:103480001203CAD2C5E50B20E1FBAF0822E50B20F1
:10349000E1FB1234504402F50BE4F09002CDE0F56C
:1034A0000A9003E41203CAE4F50E8F13D2C5E50BAC
:1034B00020E1FB22AD07ED4480F5AEE5AE20E7FB51
:1034C000AFAFEF7F00FEED144480F5AEE5AE20E730
:1034D000FBADAFEF4DFF229002DFE0FFA30203AA96
:1034E000FB7A00E0FFA3E09002D9CFF0A3EFF02237
:1034F0009003CDE0FEA3E0FFD3228D828C831FEFEB
:10350000600BE5AE20E7FBE5AFF0A380F1E5AE2070
:10351000E7FBEB4420F5AEE5AFF02290002012016E
:103520008D7F0030E7027F01EF2446FF1201747E99
:103530000030E7027E01EF2EFF229003C8E0B401C5
:10354000179003C31203CAAF059003C6ECF0A3EFB4
:10355000F0A37402F0E4A3F022A8051FEF600BE5CE
:10356000AE20E7FBE5AFF20880F1E5AE20E7FBEB2C
:103570004420F5AEE5AFF22230030A9003CF740188
:10358000F09003D6F0D204122B84122455C20412F8
:103590002B84022455A8051FEF600AE5AE20E7FB47
:1035A000A6AF0880F2E5AE20E7FBEB4420F5AEA61F
:1035B000AF229002D6EDF0A3EAF0A3EBF0EFB40255
:1035C000097B017A03797612382FE4FEFF22EF247B
:1035D000C060071470087E3280067E6480027E2000
:1035E000AF06E4FCFDFE02321CE50B20E1FBAF055B
:1035F0008F0C9003E81203CAE4F5099003E7E04456
:1036000004F0227F087E001238D87BFF7A3779C217
:103610007D067C0012395B7E907F0022E49001A23F
:10362000F0A3F0900005F09001A1F0FD12105F12E0
:10363000106C0204A2EFC394034002D322EF122CB9
:1036400004F583E9122BC8B40102C322D322AFA729
:103650009003C87401F075A72043B38075A7204379
:10366000B3408FA7228D828C83AE071FEE600CE5DE
:10367000AE20E7FBE493F5AFA380EE22E4FF12381F
:10368000529003C87405F075AE1175AF60E5AE20B9
:10369000E7FB227BFF74019002CDF07FC0229002F5
:1036A000C10203AA9002C50203AA9001E91203CA4B
:1036B0001200031239531238B2E49003EDF0A3F074
:1036C000229003E11203AA120174FFD3950850035C
:1036D0008F0822430B1022AD079003EBE0FEA3E01E
:1036E000FF1224E19003EBEEF0A3EFF0228D828C29
:1036F00083AE071FEE600BE5AE20E7FBE0F5AFA35E
:1037000080EF22A805AE071FEE600BE5AE20E7FBB9
:10371000E6F5AF0880EF22A805AE071FEE600BE5C7
:10372000AE20E7FBE2F5AF0880EF22E4F5A7F5A9AC
:10373000E5A930E7FB75A903E5A930E7FB22AF88CF
:103740005388AF758D30EF5440FEEF54104E4288D1
:1037500022E5C8540453C8FB75CB4475CA8043C8DE
:103760000442C822900005E060081210727D4012E9
:103770002F2A02361C7BFF7A3979199002CD740208
:10378000F07FC002348D9003B8E0C3940240057FFF
:103790000512319E2253F77F75DA4275FB9675FC50
:1037A000962253F77F75DB4275E99675EA962253A8
:1037B000F77F75DC4275EB9675EC9622020030447B
:1037C00000045532465F56320075AE91E5AE20E7F3
:1037D000FBE5AFA2E42275AE91E5AE20E7FBE5AFD5
:1037E000A2E22275AE91E5AE20E7FBE5AFA2E122B1
:1037F00075AE91E5AE20E7FBE5AFA2E52275AE948C
:10380000E5AE20E7FBE5AFA2E6228512268511256D
:10381000851024850F232275AE91E5AE20E7FBE5E8
:10382000AF132275AE94E5AE20E7FBE5AF1322900F
:1038300003ED7401F09003EF0203CA8F228C278DF1
:103840002812380AC286228F8275830012018DF5F4
:103850001C2275AE0E8FAFE5AE20E7FB2275AE865B
:10386000E5AE20E7FBAFAF2275AE82E5AE20E7FB09
:10387000AFAF2275AE84E5AE20E7FBAFAF2275AEE9
:103880008EE5AE20E7FBAFAF2275AE96E5AE20E742
:10389000FBAFAF22E4F5A775A4D075D4CF2275E3B2
:1038A0004075E105E4F5E222758E1C758921438897
:1038B00040227A39791512369302348DE5217F0042
:1038C000B402027F01227BFF7A3C799A02220C909B
:1038D00002D6EFF0A3EDF022900091EEF0A3EFF00E
:1038E000229003F4E0FEA3E0FF229003B9E0FF0280
:1038F000319E75A72075C60422E4F5A575D5012271
:1039000075A71075C1302275E68175A8A02275A72C
:1039100010E5CE1322020001000000007BFF7A397F
:103920007963227F171234B4229003EEEFF02290D5
:1039300003EEE0FF22E4F522C28622E4F522D286DD
:10394000227597A5023764E4F5A72243C19F22435D
:10395000981022E4F50B227597A5220218E0C322E5
:103960003222223082022E308201D4020900B1506C
:10397000B30973FDA462300A06082A8648CE3D04C6
:10398000030230819E310B300906035504061302F1
:103990004445310F300D06035504080C064265728C
:1039A0006C696E310F300D06035504070C06426535
:1039B000726C696E31263024060355040A0C1D54BE
:1039C00065737420636572746966696361746520E8
:1039D0004F7267616E697A6174696F6E3116301467
:1039E000060355040B0C0D536563757269747920D9
:1039F000746573743112301006035504030C0954B6
:103A0000657374206E616D653119301706092A8659
:103A10004886F70D010901160A7465737440656DD7
:103A200061696C301E170D31383034303630383122
:103A30003033305A170D3138303530363038313078
:103A400033305A30819E310B30090603550406137A
:103A5000024445310F300D06035504080C0642653B
:103A6000726C696E310F300D06035504070C064267
:103A700065726C696E31263024060355040A0C1DEC
:103A800054657374206365727469666963617465F3
:103A9000204F7267616E697A6174696F6E3116309A
:103AA00014060355040B0C0D536563757269747924
:103AB00020746573743112301006035504030C0929
:103AC00054657374206E616D653119301706092ACB
:103AD000864886F70D010901160A746573744065FE
:103AE0006D61696C3059301306072A8648CE3D0255
:103AF0000106082A8648CE3D03010703420004332D
:103B0000D925F70AADFAEBCB759A6695506EEE9B08
:103B1000B2A6820F034DAD6EADC70F8285DF06AA38
:103B2000470A2417EDA6BC7C04FC2969F33DBBC100
:103B3000F7501F83442C0622783CF1464C669630A1
:103B40000A06082A8648CE3D040302034800304591
:103B5000022048566F5316EDF143839E4E52A785BF
:103B600034F56559F952B24A014806FFE566D96B4A
:103B7000F8CC0221009A609444E088539ED7FEED71
:103B800054DD90C79754DA45116FD585828C404536
:103B9000F269E5A36000546CECE8ABC202565339FD
:103BA000274E551512CED1171892664431BF855E47
:103BB00047D11666C6AB02E587ED005E66C54CC50B
:103BC00061D3C3EA52F0449EED117CC6DBE36DC6BF
:103BD000EF22243F9DFD5B28FA00AD54DA88640093
:103BE00006D0F10901A1010920150026FF00750882
:103BF000954081020921150026FF00750895409126
:103C000002C01201000200000040A0208742000113
:103C100001020301090229000101008032090400A8
:103C20000002030000040921110100012222000703
:103C30000581034000050705010340000504030951
:103C4000040112034E6974726F6B657900012403DD
:103C50004E6974726F6B6579204649444F20553226
:103C600046000122034341464542414245464646FD
:103C70004646464646000124034E6974726F6B65E2
:103C800079204649444F2055324600FF3C3DFF3CD9
:103C900041FF3C4DFF3C62FF3C76FF3C02FF3C1481
:063CA000FF3C8B05000053
:00000001FF
