:020000040000FA
:100000000219DDE50B20E1FB1227DF4403F50BE4C9
:10001000F0F50D8F139000A5E0F5089001BE1202D7
:10002000B2D2C5E50B20E1FBAF0822022795E5918E
:1000300054045391FB4391044291220208E9900039
:10004000AAE0FEA3E0F5828E83E0229000AAE0FE03
:10005000A3E0FF2404F582E43EF583E0229000AAA9
:10006000E0FEA3E0FFF5828E83A3A322C413131343
:10007000540122022C24C2DED2DE22021058E709EB
:10008000F608DFFA8046E709F208DFFA803E888248
:100090008C83E709F0A3DFFA8032E309F608DFFA80
:1000A0008078E309F208DFFA807088828C83E309A4
:1000B000F0A3DFFA806489828A83E0A3F608DFFA7E
:1000C000805889828A83E0A3F208DFFA804C80D2CC
:1000D00080FA80C680D4806980F28033801080A648
:1000E00080EA809A80A880DA80E280CA80338982A0
:1000F0008A83ECFAE493A3C8C582C8CCC583CCF04C
:10010000A3C8C582C8CCC583CCDFE9DEE7800D89F2
:10011000828A83E493A3F608DFF9ECFAA9F0EDFBF9
:100120002289828A83ECFAE0A3C8C582C8CCC58341
:10013000CCF0A3C8C582C8CCC583CCDFEADEE8809A
:10014000DB89828A83E493A3F208DFF980CC88F00C
:10015000EF60010E4E60C388F0ED2402B40400503D
:10016000B9F582EB2402B4040050AF232345822367
:100170009000CE73BB010689828A83E0225002E799
:1001800022BBFE02E32289828A83E49322BB010C14
:10019000E58229F582E5833AF583E0225006E925D8
:1001A00082F8E622BBFE06E92582F8E222E58229F2
:1001B000F582E5833AF583E49322BB010689828ABE
:1001C00083F0225002F722BBFE01F322F8BB010D9F
:1001D000E58229F582E5833AF583E8F0225006E9C5
:1001E0002582C8F622BBFE05E92582C8F222C5F0A9
:1001F000F8A3E028F0C5F0F8E582158270021583B7
:10020000E038F022BB0110E58229F582E5833AF55A
:1002100083E0F5F0A3E0225009E92582F886F00892
:10022000E622BBFE0AE92582F8E2F5F008E222E5C3
:10023000832AF583E993F5F0A3E99322F8BB011132
:10024000E58229F582E5833AF583E8F0E5F0A3F04D
:10025000225009E92582C8F608A6F022BBFE09E96A
:100260002582C8F2E5F008F222EB9FF5F0EA9E4203
:10027000F0E99D42F0E89C45F022E0F8A3E0F9A304
:10028000E0FAA3E0FB22ECF0A3EDF0A3EEF0A3EF85
:10029000F022E0FBA3E0FAA3E0F922F8E0FBA3A33D
:1002A000E0F925F0F0E582158270021583E0FA3856
:1002B000F022EBF0A3EAF0A3E9F022BB0107898268
:1002C0008A830202925005E9F8020558BBFE05E94F
:1002D000F802056A89828A8302057CBB010DE582EA
:1002E00029F582E5833AF5830202925007E92582D7
:1002F000F8020558BBFE07E92582F802056AE58287
:1003000029F582E5833AF58302057CBB0120E5826D
:1003100029F582E5833AF583D0F0D0E0F8D0E0F912
:10032000D0E0FAD0E0FBE8C0E0C0F00202B2501822
:10033000E92582F8D083D082D0E0F9D0E0FAD0E08D
:10034000FBC082C083020561BBFE18E92582F8D09C
:1003500083D082D0E0F9D0E0FAD0E0FBC082C08345
:1003600002057322D083D082F8E493701274019353
:10037000700DA3A393F8740193F5828883E47374DA
:1003800002936860EFA3A3A380DFEF4E6012EF60DB
:10039000010EEDBB010B89828A83F0A3DFFCDEFA3C
:1003A0002289F05007F709DFFCA9F022BBFEFCF31D
:1003B00009DFFCA9F022E709F608DFFA807BE9D320
:1003C0009850F3E92FF9E82FF819E718F6DFFA80CB
:1003D00068E709F208DFFA806080E388828C83E7AF
:1003E00009F0A3DFFA8052E309F608DFFA804AE950
:1003F000D398500EE92FF9E82FF819E318F2DFFA35
:100400008037E309F208DFFA802F88828C83E309C2
:10041000F0A3DFFA802389828A83E0A3F608DFFA5B
:10042000801789828A83E493A3F208DFF9800A891E
:10043000828A83E0A3F208DFFA0204C880B180F95F
:1004400080A580C680DC80F180738010808380E985
:100450008087808780D980E180BC8073D3E998EA67
:100460009C5039E92FF582EA3BF583E82FF8EC3B05
:10047000FC0582D5820215831582E493C8C582C823
:10048000CCC583CC0582D5820215831582F0C8C500
:1004900082C8CCC583CCDFD9DED7802E89828A83FF
:1004A000ECFAE493A3C8C582C8CCC583CCF0A3C83A
:1004B000C582C8CCC583CCDFE9DEE7800D89828A9E
:1004C00083E493A3F608DFF9ECFAA9F0EDFB22D35D
:1004D000E998EA9C5038E92FF582EA3BF583E82F4A
:1004E000F8EC3BFC0582D5820215831582E0C8C575
:1004F00082C8CCC583CC0582D5820215831582F0D3
:10050000C8C582C8CCC583CCDFDADED880BC89827E
:100510008A83ECFAE0A3C8C582C8CCC583CCF0A31B
:10052000C8C582C8CCC583CCDFEADEE8809C809851
:1005300088F08E83EF60010E4E608DED2402B404CE
:10054000005085F582EB2402B4040050E1232345DA
:1005500082AB832390043C73E6FB08E6FA08E6F9D5
:1005600022EBF608EAF608E9F622E2FB08E2FA08CE
:10057000E2F922EBF208EAF208E9F222E493FB74D2
:100580000193FA740293F9229000051202B27F409F
:100590007A00790C120AA512017490000CF0120373
:1005A0006405C080062A81062D8206308306A98450
:1005B00005E88506D48606F187074A880000078586
:1005C000120A38120A4A120AB4E41BFA7D807F022A
:1005D000121635780E7C00120B447F0F12053090F6
:1005E000000D740FF002078A120AAE78C47C001264
:1005F0000A81120B01FB120A647420F0120A4B12DA
:100600000AB47B087A007D827F12121635EF6005EE
:10061000E490000DF0120A727E007F207D007B01C5
:100620007A0079C412038A02078A0206EB0206EBFB
:10063000120AAE900001120204FF9000BBE5F0F038
:10064000A3EFF0120B01FB7A00794E122652EF4E07
:100650007023FBFAF9120A3E120A4A7428120A9B06
:100660009000BBE0FAA3E0FBE4FD7F17121635EF24
:10067000600302078F7B017A00794E122615EF4E38
:10068000600302078AFBFAF9120A3E120A4A74282A
:10069000120A9B9000BBE0FAA3E0FB7D817F17125A
:1006A0001635EF700302078A22120A387A00792978
:1006B000120A4F7446F00B120AB77B0F7A007D04C2
:1006C0007F40121635780C7C00120B447F401205D7
:1006D0003002078A120AAEE92401F9E43AFA78E80E
:1006E0007C007D017E007F24120530120B01020781
:1006F0008A7F247A0079C4120AA578C87C00120A7D
:1007000081120B01FB7A0079E89000791202B29015
:10071000007CE4F0A3740FF07A0079C41222907B7D
:10072000017A0079E890007B1202B29000C01202B8
:100730009290007E1202B27B017A0079C47F0F7E14
:1007400000121ED4EF4E6042803B7F047DFF120AF0
:10075000577404F0120A4B120AB47B407A007D02EF
:100760007F12121635EF6002801B120B01FB12077D
:10077000907F147E007D007C0012259B780076A57A
:1007800075EF128005E490000DF07B0112079022B6
:100790007A00790C7D4012232D229000AAEEF0A35E
:1007A000EFF0A374FDF012003EFFC4135403600386
:1007B000020857EF12006C20E00302085712003EB7
:1007C000541F64016003020857A3E024FA60030287
:1007D00008E312004BFCA3E04C60030208E38F82A5
:1007E0008E83A3A3E0642270287BFF7A2C79279064
:1007F00000AAA3E02406120055FEA3E0FFD3942232
:10080000EE9400400A7C007D227E007F22803E80A4
:100810003C9000AAE0FCA3E0FDF5828C83A3A3E05A
:10082000642160030208E37BFF7A2C796DED2406D6
:10083000F582E43CF583E0FEA3E0FFD39409EE9457
:1008400000400A7C007D097E007F0980009000B195
:10085000EEF0A3EF0208D612003EFFC41354036467
:100860000160030208E3EF541F6401707612004B2D
:10087000FCA3E04C706D8F828E83A3E024FE602287
:1008800024F8705F12005DA3E07058EF2406120098
:1008900055FEA3E04E704C12003E12006C20E04367
:1008A000803C12005DE0FCA3E04C7037EF240612A0
:1008B0000055FEA3E064014E702912003E12006C48
:1008C00030E0209001527418F07B017A0179529047
:1008D00000B1E4F0A304F0C203E4FF121130E4908D
:1008E00000ACF09000ACE0FF22C0E0C0F0C083C0DC
:1008F00082C0D075D000C000C001C002C003C004D7
:10090000C005C006C007E5C054F0F51B30C20302A5
:100910000A04E51B248070030209AE24C06014247D
:10092000E06003020A04E50B54014513F5C2C2C599
:10093000020A0020C107D2C4430B40806CE50B3093
:10094000E003020A00E50EC3950A501B9001C11294
:100950000292AF0E050E122B48E50ED394014024EF
:10096000AF1C1229E2801DE50B30E21DE509C3959D
:100970000C50169001C5120292AF090509122B48BE
:10098000FF1229E2851CC28077AF140514EF1460B2
:100990000E14601324027068120A21F5C28061905F
:1009A00001C8E0F5C28059D2C4530BFD8052E50D59
:1009B000C39508504185C21C9001BE120292850D5C
:1009C00082758300E51C1201CCE50D70031229CC61
:1009D000E50824FEFFE50DC39F50159001C8E0FE19
:1009E000A3E0FFAD1C121B819001C8EEF0A3EFF055
:1009F000050DD2C1800A120A21530BFDC2C1D2C417
:100A0000C2C08002C2C0D007D006D005D004D00337
:100A1000D002D001D000D0D0D082D083D0F0D0E0AE
:100A2000329001C8E0FEA3E0FF121C049001C8EE62
:100A3000F0A3EFF0221202B27B007A00790090005E
:100A40008D1202B2E4900090F0220B7A00794EA34E
:100A50001202B2900094227E007B017A0079C412C7
:100A6000038A7B017A0079C490008D1202B2900053
:100A700090227F207E007D007B007A00792902038E
:100A80008AE92401F9E43AFA7D017E007F2002051B
:100A9000307A007900A30202B27446F01B7A007922
:100AA00000A30202B27E007D007B0112038A900047
:100AB000050202927428F07A007908A30202B27447
:100AC00028F07A0079007B01A30202B290000012A4
:100AD0000292900091227BFF74019000A5F07FC0EC
:100AE00022FF120292E92FF9EA35F0FA90000BE0AA
:100AF000FEC313227D017BFF7A2279E27F0102058A
:100B00003090000D7401F0221202928F82758300E2
:100B100002018D7D017B017A00790022A801FC028F
:100B200002927428F00B7A007985A30202B274074E
:100B3000F07A00791FA30202B29000231202B29051
:100B40000017E0227D019000091202927E0022909F
:100B5000009902029290009D020292E4FDFC900036
:100B6000AF74FFF0900197E064806003020C6C901A
:100B70000199E0FAA3E09000ABF0EAFFE460030221
:100B80000C48EF24FE602814604A24026003020C23
:100B9000489000ABE06003020C489001B512202A97
:100BA0009001B51202921201747C00FD020C489073
:100BB00000ABE06003020C489001B812202A9001BB
:100BC000B8120292900002120204FAE5F0FFEAFC69
:100BD000EFFD80749001BB1202929000ABE0FF75B4
:100BE000F003A4F58285F0831202DB12202DEF7052
:100BF0000CFC7D0490019FE05480F0804B12201B80
:100C0000FF4E600AEF64097003EE6404703A9001CD
:100C100094E0FF9000ABE0C39F502DA3120292908E
:100C2000000112018D7C00FD120174547FFF9001C0
:100C30009FE054804FFFF09000ADE475F001120189
:100C4000EEEF448090019FF0ED4C602090019DE01C
:100C5000FEA3E0FFC39DEE9C5004AC06AD079000E0
:100C6000AC1202921228A5E49000AFF09000AFE021
:100C7000FF22E4F51DF51E1224067597047597A54D
:100C80007B007A007929122A36D2AF7597A5E5EF55
:100C900030E3057F19122C00E4F521122C0C7B00A7
:100CA0007A007929122861E4FDFC7F01122B3C7542
:100CB00097A5122492121FAA7F0212296E40257F47
:100CC0000112296E401E9001CAE0640160167B018A
:100CD0007A017953900009E4F0A37440F0D2007FC8
:100CE000021217849001CAE01470299001CC1202FC
:100CF00092120E73EF7F0070027F01900004EFF0FC
:100D000060099001CC1202921205889001CAE0B4E9
:100D10000102E4F09001CBE06095E4FFFE051EE5E2
:100D20001EAC1D7002051D14F5828C83E4F07597CE
:100D3000A50FBF00010EE4B507E3EEB404DFE490B5
:100D400001CBF0AE11AF12900000E0FCA3E0FDC3B8
:100D5000EF9DFDEE9CFCC3ED94F4EC9401400A90F1
:100D60000000EEF0A3EFF080047E007F00EF4E6005
:100D700003020CAF7597A580CA9001A6E0139203F9
:100D80009001A3E0FEA3E0FFC39440EE9400400472
:100D90007F4080009000AAEFF0A3F090019FE0FF59
:100DA000547F64017056EF30E721A3120292C2050E
:100DB0007D02E4FF121E5F75F00212216B9000AA03
:100DC000E024FEF090019FE0547FF0E49000ACF04E
:100DD0009000AAE0C313FF9000ACE0C39F5038120C
:100DE0002180120E6975F00112216B7BFF7A2C793C
:100DF000EB120E699000ACE004F080D49000AA12CF
:100E0000217EC205E4FF121E5F9000AAE0FF900160
:100E1000A1E48FF01201EE9001A6E054FBF09000E7
:100E2000ABE0FFFD1221869400FCF0A3EDF04C70C6
:100E30001EEF6440601975AE1175AF0AE5AE20E78C
:100E4000FB122164E490019FF09001A6F0800B75E5
:100E5000AE1175AF02E5AE20E7FB30030B9000AB9F
:100E600012214FFDFF12291D22C2057D01E4FF1250
:100E70001E5F229000051202B290000412018D2420
:100E8000DE605424FE7003020F10249C7003020FD6
:100E90001B147003020F3724686003020F5C1223D7
:100EA000BFE41BFAFD7F1B121635EF900005701D85
:100EB0001223F2A801FCAD039000091202927E00F9
:100EC0007F201205301223E775F02080051223EAF7
:100ED000F5F012023C80329000051223F2FA122340
:100EE000FC7414F07B001223D0E41BFAFD7F161271
:100EF00016351223E775F00112023CEF7F007002F5
:100F00007F01900007EF1201CC7D4012232D804F0E
:100F10007D2C7C017F05122B3C80441223BF7F0275
:100F2000120F62900009120292120174F47030F8EC
:100F300076A575EF1280287E007F047D007B007A05
:100F400000792912038A7B007A0079291223FC7424
:100F500004F01223D47F12120F6280037F00227FDD
:100F600001227B407A007D0212163522C2037F01E6
:100F7000122B53122AFE501575AE94E5AE20E7FBF6
:100F800053AFBFE5AE20E70302105780F6122B24C3
:100F90004003021057122BFA9000AAEFF09001B311
:100FA000E06403600EA3E04402F09000AB74F9F03B
:100FB0000210369000AAE0FDFFC39001B2E09F90BE
:100FC00001B1E0940050139001B37401F0A3E04428
:100FD00002F09000AB74F2F0805C9001AE120292CD
:100FE0007F011220D69001B4E054FDF09000AAE0F9
:100FF000FFFD7C00C39001B2E09DF09001B1E09C48
:10100000F09001AFEC8DF01201EE9001B1E07002B2
:10101000A3E06005EF644060089001B37401F0D272
:1010200003E49000ABF075AE94E5AE20E7FB53AF60
:10103000FEE5AE20E7FB9001B4E030E01A30030398
:1010400054FEF09000ABE0FD9000AAE09001B112D8
:1010500028477F0212291D22C0E0C0F0C083C08251
:10106000C0D075D000C000C001C002C003C004C021
:1010700005C006C007122B5E9000A6EFF0122B6988
:101080009000A7EFF0122B749000A8EFF0122B7FC6
:101090009000A9EFF09000A6E0FC30E3379001A6A5
:1010A000E0FE30E1089001A5E06403600BEE30E261
:1010B0000E9001A5E0B402079000A7E04401F09073
:1010C00001B4E030E10E9001B3E0B403079000A852
:1010D000E04402F0EC30E2031225D89000A6E030A4
:1010E000E103122BCF9000A6E030E003122A949087
:1010F00000A7E030E1031216DF9000A8E030E10322
:10110000120F6C9000A7E030E0031214DE9000A9EB
:10111000E0FF122B53D007D006D005D004D003D067
:1011200002D001D000D0D0D082D083D0F0D0E03235
:101130009000ADEFF0A31202B29000B5E5A7F090D9
:1011400000ADE0600814600580007FFC229000ADD7
:10115000E0FE600B900195E0640660037FF722EEED
:101160009000B3122073FF64016009EF7FFEB405A5
:10117000027FFB22122BF392041220A09000AE12E9
:1011800002929000B31220B79000B1E0FCA3E0FD02
:101190008F828E83A3A3A3ECF0A3EDF09000B31293
:1011A00020927402F0A203E4335401FBEF240612F0
:1011B0002099E054FE4BF09000ADE014600C0470F8
:1011C000299001A6E04404F08020D3ED9440EC94F3
:1011D0000040047D4080069000B1A3E0FD9001A78F
:1011E000120292D2057F01121E5F3004031220A763
:1011F0009000B5E0F5A77F00229000AB122033707D
:1012000004A3E0640260030212B9900199E0700245
:10121000A3E060030212B9900197E0FF20E7030208
:1012200012B912203B50030212B9E49001CFF0A38F
:10123000F0EF541F14602214603024027069900192
:101240009BE07002A3E0705F122C2250499001CF06
:10125000E04401F0A3E0F08049C390019CE09401D8
:1012600090019BE09400503F803812201BFF547F78
:101270004E7009900195E0B404028026900195E03B
:10128000B40624EF247F60102480701B9001B3E02B
:10129000B4060312205F800A9001ACE0B40603128A
:1012A000205FE49000ABF09000ABE0700C7B017A23
:1012B0000179CF7D02FC1228A59000ABE0FF2290BF
:1012C00000991202B290009CEDF09000A5F07FC052
:1012D0001200039000A0EFF0E50B30E6037FFF2241
:1012E000E50B30E4057F06122C0090009CE0FF9097
:1012F00000A0E0FED39F502DEEC394044027120BB4
:101300004FEE7E0029F9EE3AFA90FFFE120204FA3F
:10131000E5F0FFEAFE9001C8E06E7003A3E06F60A5
:10132000087F1580177F1680139000A0E0B4041288
:10133000120B4F90000112018DFF6006122C007FEE
:10134000FF22120B55E94A4B60279000A0E024FDD4
:10135000FF120B55EF1201BA120B4FE92401F9E409
:101360003AFAC003C002C001120B559000011203EB
:101370000B9000A0E0FF22900012EFF0A3EDF0A38D
:101380001202B2120B39FE2DFDE433FCD3ED9404AE
:10139000EC6480948040037FFF22EEC394045043AA
:1013A000900012E0FB7A00C002C0037B00120A3CEE
:1013B0000B7A007918120A4F120B2ED003D0027F3D
:1013C00002121420120B39FF7E00900020120292AC
:1013D000900013E07C0029F9EC3AAD03A3120B1C3A
:1013E000120530900012E0FB7A00C002C0039000AA
:1013F00023120292120A687404F07B017A007918B1
:10140000120A4F120B2ED003D0027F121214201298
:1014100001746009F404FF122C007FFF227F002278
:10142000E4FD121635900020120292229000AB7457
:10143000FFF0900199E0FCA3E0FDEC60030214D8FA
:1014400012202360030214D890019DE07002A3E0F3
:1014500060030214D890019BE07002A3E0707990C1
:101460000195E064047032ED4C600F12200FFF9084
:101470000199E07003A3E06F705E12206912200FE3
:10148000FF900199E0B4000FA3E0B5070AD2031260
:1014900028E37F0612255B803A12204E703A9001B5
:1014A00099E0FEA3E0FF4E600E12200FFD7C00EFDE
:1014B000B50525ECB50621122069900199E070026E
:1014C000A3E0700A7F0412255B1226C38005C203C5
:1014D0001228E3E49000ABF09000ABE0FF22E4FFC1
:1014E000122B53122AD74005122ACA501C75AE116E
:1014F000E4F5AFE5AE20E7FB75AE1175AF80E5AE64
:1015000020E7FB122164E4A3F0122B18506D900128
:10151000A6E0FF30E30280609001A5E0640170481E
:1015200090019FF01221927E017F9712079ABFFDD2
:1015300015900197E0FFC41354037005121CF98045
:101540003A1229B58035900197E020E72E9001A549
:10155000E06403602690019DE07002A3E0601C90AF
:1015600001A6E04408F080139001A5E0B403051241
:1015700018B880079001A6E04402F09001A5E0B4FD
:101580000208122AE44003120D79229000AB1220C7
:10159000337002A3E0600302162F12202324FE60A2
:1015A0000302162F900199E07002A3E06003021677
:1015B0002F12201B547FFF4E700C12203B4007E47B
:1015C0009000ABF08069C3EF9403EE94005060127A
:1015D000204E705B9000AB122055122B5390019C53
:1015E000E030E70B75AE1175AF40E5AE20E7FB903C
:1015F000019CE020E71875AE94E5AE20E7FB53AF01
:10160000DFE5AE20E7FB43AF80E5AE20E7FB9001CE
:101610009CE0247F600E248070159001B3E0640389
:10162000600D80089001ACE0640260037401F090EA
:1016300000ABE0FF22900089EFF0A3EDF0A3EAF009
:10164000A3EBF0E4900098F0122A83900089E0FF69
:10165000A3E0FD90008D12029290009D1202B290C4
:101660000090E09000A0F090008BE0FAA3E0FB1265
:101670002376BFFF1A7F0A7E007D007C0012259B27
:10168000900098E004F0E0D3940840BF7FFF2290E0
:101690000094E0FDA312029290009D1202B290000D
:1016A000911202921212BFEFF4702E900098E00493
:1016B000F0E0D3940540037FFE22122C06EF700A5F
:1016C000900089E0FF12293980C5900089E0FFE48D
:1016D000FCFDFE12259B02164B122BB37F00227FCE
:1016E00001122B53122AF1501075AE11E4F5AFE53B
:1016F000AE20E70302178380F69001ACE06402603D
:10170000030217831228579440EE940040047F4050
:1017100080009000AAEFF07E00C39001ABE09FF044
:101720009001AAE09EF09001A8EE8FF01201EE90D9
:1017300001ADE01392031228579400EE940040226A
:10174000D3EF9440EE940040047D4080069001AABF
:10175000A3E0FD9001A7120292D2057F01121E5F45
:10176000800D9001ADE054FEF09001AC7401F030BA
:1017700003119000AAE09001AA122847E4FD7F011E
:1017800012291D229000061202B290000DE5A7F06A
:10179000EF600924FE600580007FFC22EF600B9063
:1017A0000195E0640660037FF722EF90000B1220A2
:1017B00073FF64016009EF7FFEB405027FFB221214
:1017C0002BF392011220A090000612029290000BBF
:1017D0001220B7900009E0FDA3E08F828E83A3A3BF
:1017E000A3CDF0A3EDF090000B1220927403F0A2B1
:1017F00000E4335401FDEF2406122099E054FE4D1D
:10180000F090000BE0FEA3E02406122099E054F7CC
:10181000F03001031220A790000DE0F5A77F002211
:101820009000061202B2900009E5A7F01220A01263
:101830002C26E4FF74932FF582E43401F583E4F061
:101840000FEFB42BEF1220B11202BB9001B51220A2
:10185000AE9000031202DB9001B81220AE90000699
:101860001202DB9001BB1220AE90000912018D9094
:101870000194F01220CF75A72043B32075A7205301
:10188000B57F75AE0175AF08E5AE20E7FB75AE0B11
:1018900075AF0FE5AE20E7FB122987900195740321
:1018A000F01220A7900009E0F5A775AE0175AF0111
:1018B000E5AE20E7FB7F00229001A6E01392031221
:1018C0002B8A9000AAEFF0C39001A4E09F9001A39F
:1018D000E094005010122164A3E04402F09000ABA9
:1018E00074F2F080539000AA12217EE4FF1220D6F9
:1018F0009000AAE0FFFD7C009001A1EC8DF01201A8
:10190000EE1221869CFCF0A3EDF0E49000ABF0ED2C
:101910004C701AEF6440601575AE1175AF48E5AEB6
:1019200020E7FB122164A3E054FEF0800B75AE119A
:1019300075AF40E5AE20E7FB30030F9000ABE0FD54
:101940009000AA12214FFF12291D229000AB1220F5
:10195000337002A3E060030219D712202324FE7023
:101960007612201B547FFF4E700C12203B4007E480
:101970009000ABF08061C3EF9403EE940050589058
:101980000199E07002A3E0704E12204E7049900061
:10199000AB122055122B5390019CE030E70B75AE33
:1019A0001175AF10E5AE20E7FB90019CE020E71039
:1019B00075AE94E5AE20E7FB43AF20E5AE20E7FB34
:1019C00090019CE0247F60092480700B9001B3801B
:1019D000039001AC7406F09000ABE0FF22787FE446
:1019E000F6D8FD758172021A24020C72E493A3F8F2
:1019F000E493A34003F68001F208DFF48029E49326
:101A0000A3F85407240CC8C333C4540F4420C8831C
:101A10004004F456800146F6DFE4800B010204081E
:101A20001020408090223DE47E019360BCA3FF54CF
:101A30003F30E509541FFEE493A360010ECF54C06C
:101A400025E060A840B8E493A3FAE493A3F8E493F4
:101A5000A3C8C582C8CAC583CAF0A3C8C582C8CAFC
:101A6000C583CADFE9DEE780BEAE07E4FB122B5375
:101A7000300513A80674107E00088005C333CE33EA
:101A8000CED8F9FF8013AF0674207E00A807088027
:101A900005C333CE33CED8F9FFD3ED9FEC9E50046F
:101AA000EB4480FB300604EB4440FB300421EB4464
:101AB00020FB3005034404FB75AE1175AF40E5AE65
:101AC00020E7FB75AE128BAFE5AE30E72780F975E6
:101AD000AE1475AF80E5AE20E7FB75AE15AF038F92
:101AE000AFE5AE20E7FB20050B75AE12E4F5AFE5E0
:101AF000AE20E7FB229000121202B2E4900017F031
:101B0000A3F0900015F0900015E0FFC3940450700E
:101B1000EF75F008A4FBAAF0C002C003120A3890C7
:101B20000012120ACF120A507428F07B017A007951
:101B300019A31202B2D003D0027D807F02121635A3
:101B4000E4900016F0900019E0FF900016E0FDC34D
:101B50009F5025A3E0FEA3E0FF90001A1202928D91
:101B600082120B0DFD121B81900017EEF0A3EFF017
:101B7000900016E004F080CD900015E004F080861F
:101B800022AB07AA06EB6DFB30E0051227C78003E6
:101B90001227D7AA06AB07EB30E0051227C7800350
:101BA0001227D7AA06AB07EB30E0051227C7800340
:101BB0001227D7AA06AB07EB30E0051227C7800330
:101BC0001227D7AA06AB07EB30E0051227C7800320
:101BD0001227D7AA06AB07EB30E0051227C7800310
:101BE0001227D7AA06AB07EB30E0051227C7800300
:101BF0001227D7AA06AB07EB30E0051227C78003F0
:101C00001227D722AD07AC06EC5455FEED545525EE
:101C1000E0FBEE33FAEC54AAFEED54AAFFEEC31338
:101C2000FEEF131227EDFDEC5433FEED5433780232
:101C3000C333CE33CED8F9FBAA06EC54CCFEED5418
:101C4000CC7802CEC313CE13D8F91227EDFDEC5495
:101C50000FFEED540FC4F8540FC868FBEEC454F0E7
:101C600048FAEC54F0FEED54F0FFEEC4F854F0C81E
:101C700068FEEFC4540F481227EDFAECFFEAFE228B
:101C80009000081202B27BFF7A2279E990000C12D0
:101C900002B27A23790A90000F1202B2E490000B8C
:101CA000F090000BE0FFC39410503BEF75F002A4DE
:101CB000A3120AE12405FFEE7D0030E0027D02124E
:101CC0001CEF90000BE075F002A490000F120AE1E7
:101CD0002418FFEE7D0030E0027D02121CEF900020
:101CE0000BE004F080BB900008120292021AF590FB
:101CF00000177402F012137722E49000AAF090010A
:101D000098E01203641D24001D29011D2E031D33BC
:101D1000051D38061D3D081D42091D470A1D4C0BB7
:101D200000001D561211F9802612158B8021121900
:101D30004B801C121D718017120B5B80121221E95F
:101D4000800D12142C80081224D7800312268C9048
:101D500000AAEFF080069000AA74FFF0E4FF122BB7
:101D6000539000AAE0B4FF031229B59000AAE0FF47
:101D7000229000AB74FFF0900199E0FEA3E0FFC356
:101D80009480EE9400505C90019DE07002A3E0709E
:101D900052122023704D90019BE07002A3E070432B
:101DA000900195E0B4030BEF4E601D7F0412255B9C
:101DB0008016900195E0B40414900199E07002A39C
:101DC000E070057F0312255BE49000ABF09000AB60
:101DD000E07010F5AE900199A3E04480F5AFE5AE58
:101DE00020E7FB9000ABE0FF229000B0EFF0E49022
:101DF00000B3F0A3E5A7F09000B0E0FF6005C39446
:101E00000340089000B374FCF08042122BF392045C
:101E10001220A09000B0E01220C3FEAF01A3122058
:101E200081640160289000B0E024FE600A04700C18
:101E30007F011226F980057F0112272D9000B11233
:101E400020927401F0EF2406122099E4F03004038C
:101E50001220A79000B4E0F5A79000B3E0FF229015
:101E600000B6EFF0A3EDF0A31202B2E5AE20E7FB5F
:101E70009000B6E04420F5AE9000B8E01460142461
:101E800003601C14602314702A12283EAD01122A2C
:101E90000E802012283EAC02AD011229F8801412E7
:101EA000283EAD01122A22800A12283EAC02AD0162
:101EB00012299E30051D9000B6E0FFD39400401318
:101EC000122B5375AE91E5AE20E7FB43AF01E5AEB3
:101ED00020E7FB22900076EEF0A3EFF0A31202B20F
:101EE00012244CE4FF90007B120B08FE9000781245
:101EF0000B086EFE74292FF8A6060FEFB424E678BF
:101F00004D7C007D0090007E120292120A8A7B00B6
:101F10007A007929120A687444F0120A4F7428F082
:101F20000B7A007981A31202B2900076E0FAA3E066
:101F3000FB7D407F46121635EF60057EFF7FFF2256
:101F4000E4FEFF2290007E1202B2900081EDF0E4E8
:101F5000A3F07597A5900081E0FF14F0EF604A9020
:101F6000007EE475F00112029B120174FF9000C321
:101F7000E0FE04F0740C2EF582E43401F583EFF0FA
:101F80009000C3E0B440CE7B017A01790C120A685C
:101F90007440F0120A4F120A997B407D017F47126C
:101FA0001635E49000C3F080AC22E5226060208604
:101FB00030C3E5129526FFE5119525FEE510952421
:101FC000FDE50F9523FCE47B64FAF9F8D31202696E
:101FD000503CD286E5226036122B0BF4603015227D
:101FE00022C3E5129526FBE5119525FAE510952407
:101FF000F9E50F9523F8E528249CFFE52734FFFE3B
:10200000E4FCFDC31202694005C286122B0B22902C
:1020100001B812029290000502018D90019BE0FE32
:10202000A3E022900197E0541F221202929000AC8C
:102030000202B274FFF090019DE022900195E0C38E
:10204000940422D205C2067D407C007F01229001CB
:1020500095E0640622F090019BA3E0547FFF22905C
:1020600001CF7401F0A3E4F022900199A3E0900164
:1020700093F02275F007A424A0F9740135F0FEAFA7
:1020800001F0A3EFF08E832405F582E43583F58318
:10209000E022E0FEA3E0FF2405F582E43EF5832282
:1020A00075A71053CEFE2275A71043CE012212024F
:1020B000B2900006020292E0FEA3E0FFF5828E835A
:1020C0000202B275F007A424A0F9740135F022755C
:1020D000A72053B5F8229000ACEFF09000AE1202AA
:1020E000B29000ADEDF0D39400404CE5AE20E7FB9C
:1020F0009000ACE0FE44E0F5AE9000AEE014601558
:102100002403602324FE702F9000AD122841AD01FE
:10211000AB060229009000AD122841AC02AD01903F
:1021200000ACE0FB0228849000AD122841AD019084
:1021300000ACE0FB1228C422F582E43CF583E0FC0D
:10214000A3E0FAECFFEAFE9000AAE0FCA3E022E0A4
:10215000FB7A009001A3E0FFA3E09000B1CFF0A3D1
:10216000EFF0E4229001A57401F0229001A1E402B5
:1021700001EEF582E43CF583EEF0A3EFF022E0FD02
:102180009001A0020292C39001A4E09DFD9001A3E2
:10219000E0227E017F979000AAEEF0A3EFF0AA065E
:1021A000F97B017D08E4FF1220D675AE1175AF40B2
:1021B000E5AE20E7FB9000AAE0FEA3E0F5828E8367
:1021C000A3A312213EFDF5828C83A3A3EEF0A3EF1F
:1021D000F0ED2404122138FD2404122172ED2406AE
:1021E0001221382406122172227FFF90019BE07099
:1021F00002A3E07047900199E07002A3E0703D9067
:10220000019DE07004A3E064017031900197E0FE4D
:1022100030E729541F7025900195E0B404087BFF36
:102220007A2C79EB800D900195E0B4060F7B017A52
:102230000179937D017C001228A5E4FF22040F00A0
:102240000000000113004301C1000000010A000169
:102250000E00010800010D004301BE000000430113
:10226000C5000000010C000109004101C400420149
:10227000C80000011400010B004100C3004100BE72
:10228000004100BD004200BB00004201D10200003D
:102290009000761202B27F1C120A7478457C007D91
:1022A000009000761202927E007F241205301227E1
:1022B000619000791202927D20121F4475294675A3
:1022C0002A4090007CA3E0F52BE4F52C752DEE75EB
:1022D0002E01752F23FB7A0079297D40121F4402BD
:1022E000251902000100000000837181018371C182
:1022F00001837183718371C171010183718371C124
:102300007183718371837183710013003C0013002A
:102310003C0013003C0013003C003C003C00130058
:102320003C0013003C001300330000304490007662
:102330001202B2900079EDF0E4A3F0900076120260
:1023400092900079E0FF9000B1E4F0A3EFF0C203B7
:102350007F01121130EF601D7F027E007D007C0046
:1023600012259B90007AE0FF04F0EFD3941E40CB3F
:102370007F14122C002290009BEAF0A3EBF0AE0534
:102380007515039000A0E0FD2407F5168F17AF0622
:102390008F1890009CE0F51990009BE0F51A9000D2
:1023A0009D1202921229547B007A0079157406124C
:1023B0000ADA1227F4E50B7F0030E6027FFF227B6A
:1023C000007A00790090008D1202B2E4900090F043
:1023D0007A007929A31202B29000947446F00B7A25
:1023E000007908A30202B290000512029290000543
:1023F000E422120292E92407F9E43A2290008D12B5
:1024000002B290009022900005E5A7F0122C121263
:102410002BD7122B95122BDE122B9F122BE5122A93
:102420004A122A5D122A7012002E122BA91200766F
:10243000122AA3122AB0122ABD122C16122C1A121A
:102440002BEC122BBD900005E0F5A722120A727B3F
:10245000007A007929120A687420F0120A4F120BD0
:1024600022E41BFA7D037F16121635EF60028019F5
:10247000120A387A007929120A4F120B227A007D4B
:10248000027F15121635EF60057EFF7FFF22E4FE06
:10249000FF2220813EE5211460130470397521016B
:1024A000851272851171851070850F6F22C3E51238
:1024B0009572FFE5119571FEE5109570FDE50F959C
:1024C0006FFCE47BEE7A02F9F8D3120269500775CB
:1024D000210222E4F5212212201BFF7DFFC394017B
:1024E000EE94005031A3E07004A3E06401702790E3
:1024F0000199E07002A3E0701D900197E0B481168D
:10250000900195E0B4060F7BFF7A2C79EB7D017C7E
:10251000001228A5E4FDAF05229000BEE070037410
:1025200002F09000BEE0FD9000C3E0FFFB7A00C027
:1025300002C0037B017A01790C120A68EFF0120ADB
:102540004F7446F07A0079BFA31202B2D003D002D2
:102550007F47121635E49000BEF0229000ACEFF0F9
:10256000900195E09000ADF0C39405400B9000AC55
:10257000E0940550031226C39000ACE0FDB40506BC
:10258000A3E0900196F09000ACE0FE900195F090F1
:1025900000ADE0FF6E6003122BC62290009912027C
:1025A00086AF12AE11AD10AC0F90009D1202869056
:1025B000009D12027AC3E5129BFFE5119AFEE51019
:1025C00099FDE50F98FC90009912027AD3120269E6
:1025D00040057597A580D8221221649001AC74063D
:1025E000F09001B3F075AE0F75AF8FE5AE20E7FB4D
:1025F00075AE0175AF01E5AE20E7FB75AE0B75AFAB
:102600000FE5AE20E7FB30B1047F0380027F0112AB
:10261000255B022C25900076120A35900076120A6E
:10262000CF120A507424F07B017A007979A3120248
:10263000B27B157A00E4FD7F0212163590007A1203
:10264000029290000212018D7004FE7F0122E4FECE
:10265000FF22900076120A35900076120ACF120AF5
:10266000507424F07A007979120AC67B157A00E456
:10267000FD7F0212163590007A120292900003122A
:10268000018D7004FE7F0122E4FEFF227FFF900196
:102690009BA3E0FE900199A3E0FDEEC394015022BC
:1026A000900195E0B4061B90019DE07002A3E070DC
:1026B00011ED700E122023FEBE0107C2031228E3A3
:1026C000E4FF229000AFE5A7F0122BF39203122053
:1026D000A09000AE7401F09000AEE0FFC3940350F0
:1026E0000B121DE99000AEE004F080EB3003031202
:1026F00020A79000AFE0F5A722122B5375AE1175FD
:10270000AF08E5AE20E7FB75AE91E5AE20E7FBE54F
:10271000AF20E3F375AE1175AF08E5AE20E7FB75AA
:10272000AE91E5AE20E7FBE5AF20E3F322122B5399
:1027300075AE1475AF10E5AE20E7FB75AE94E5AE4F
:1027400020E7FBE5AF20E4F375AE1475AF10E5AEFE
:1027500020E7FB75AE94E5AE20E7FBE5AF20E4F3A0
:1027600022E49000C3F09000BEE0FD9000BDE0FBCD
:102770007A00C002C0037B00120A3C0B7A01790C7C
:10278000120A4F120A99D003D0027F47121635E47D
:102790009000BDF022C0E0C0D075D000C005C006DA
:1027A000C007C2CFE5122401FFE43511FEE4351065
:1027B000FDE4350F8F128E118D10F50FD007D00666
:1027C000D005D0D0D0E032EAC313FEEB13FFEE64A5
:1027D000A0FEEF6401FF22EAC313FEEB13FF22E425
:1027E0009001C8F0A3F0F5149001C4E022FFEE4A76
:1027F000FCEF4B22E50B20E1FB1227DF4402F50B37
:10280000E4F09000A5E0F50A9001C11202B2E4F5EF
:102810000E8F13D2C5E50B20E1FB22AD07ED4480FE
:10282000F5AEE5AE20E7FBAFAFEF7F00FEED144461
:1028300080F5AEE5AE20E7FBADAFEF4DFF22900097
:10284000B7E0FFA3020292FB7A00E0FFA3E0900052
:10285000B1CFF0A3EFF0229001AAE0FEA3E0FFD3F6
:10286000229000051202B2759707121AF590000522
:10287000120292122652EF4E700990000512029237
:10288000121C80228D828C831FEF600BE5AE20E747
:10289000FBE5AFF0A380F1E5AE20E7FBEB4420F5CC
:1028A000AEE5AFF0229001A5E0B401179001A012AF
:1028B00002B2AF059001A3ECF0A3EFF0A37402F015
:1028C000E4A3F022A8051FEF600BE5AE20E7FBE5CF
:1028D000AFF20880F1E5AE20E7FBEB4420F5AEE572
:1028E000AFF22230030A9001AC7401F09001B3F012
:1028F000D204122043121A69C204122043021A6938
:10290000A8051FEF600AE5AE20E7FBA6AF0880F23E
:10291000E5AE20E7FBEB4420F5AEA6AF229000AE7B
:10292000EDF0A3EAF0A3EBF0EFB402097B017A012A
:102930007953122B30E4FEFF22EF24C0600714709D
:10294000087E3280067E6480027E20AF06E4FCFDB5
:10295000FE02259BE50B20E1FBAF058F0C9001C526
:102960001202B2E4F5099001C4E04404F022EFC37E
:1029700094034002D322EF1220C3F583E91220878B
:10298000B40102C322D322AFA79001A57401F07550
:10299000A72043B38075A72043B3408FA7228D8221
:1029A0008C83AE071FEE600CE5AE20E7FBE493F5E9
:1029B000AFA380EE22E4FF122B539001A57405F023
:1029C00075AE1175AF60E5AE20E7FB229001BE1237
:1029D0000292120174FFD3950850038F0822430B13
:1029E0001022AD079001C8E0FEA3E0FF121B81900A
:1029F00001C8EEF0A3EFF0228D828C83AE071FEEAC
:102A0000600BE5AE20E7FBE0F5AFA380EF22A80561
:102A1000AE071FEE600BE5AE20E7FBE6F5AF0880E2
:102A2000EF22A805AE071FEE600BE5AE20E7FBE244
:102A3000F5AF0880EF229000051202B2122C1E1290
:102A40002BB3E49001CAF0A3F022E4F5A7F5A9E5C1
:102A5000A930E7FB75A903E5A930E7FB22AF88534E
:102A600088AF758D30EF5440FEEF54104E428822EF
:102A7000E5C8540453C8FB75CB4475CA8043C804E9
:102A800042C8227BFF7A2279E69000A57402F07F8B
:102A9000C00227F4900195E0C3940240057F05121F
:102AA000255B2253F77F75DA4275FB9675FC9622FB
:102AB00053F77F75DB4275E99675EA962253F77FE7
:102AC00075DC4275EB9675EC962275AE91E5AE20FD
:102AD000E7FBE5AFA2E42275AE91E5AE20E7FBE5AA
:102AE000AFA2E22275AE91E5AE20E7FBE5AFA2E131
:102AF0002275AE91E5AE20E7FBE5AFA2E52275AE0B
:102B000094E5AE20E7FBE5AFA2E62285122685110B
:102B100025851024850F232275AE91E5AE20E7FBB5
:102B2000E5AF132275AE94E5AE20E7FBE5AF1322C7
:102B30009001CA7401F09001CC0202B28F228C275E
:102B40008D28122B0BC286228F8275830012018D75
:102B5000F51C2275AE0E8FAFE5AE20E7FB2275AEF9
:102B600086E5AE20E7FBAFAF2275AE82E5AE20E78B
:102B7000FBAFAF2275AE84E5AE20E7FBAFAF2275A9
:102B8000AE8EE5AE20E7FBAFAF2275AE96E5AE2088
:102B9000E7FBAFAF22E4F5A775A4D075D4CF2275BB
:102BA000E34075E105E4F5E222758E1C7589214349
:102BB0008840227A2279E2120AD60227F47BFF7A31
:102BC0002C79E10218209000AEEFF0A3EDF02290F6
:102BD0000196E0FF02255B75A72075C60422E4F587
:102BE000A575D5012275A71075C1302275E68175CE
:102BF000A8A02275A710E5CE13227F1712281B224A
:102C00009001CBEFF0229001CBE0FF22E4F522D23D
:102C10008622E4F5A72243C19F2243981022E4F5BF
:102C20000B22C32232222206D0F10901A101092080
:102C3000150026FF00750895408102092115002620
:102C4000FF00750895409102C012010002000000CB
:102C500040A020874200010102030109022900016E
:102C60000100803209040000020300000409211160
:102C7000010001222200070581034000050705012C
:102C800003400005040309040112034E6974726FC6
:102C90006B6579000124034E6974726F6B6579204E
:102CA0004649444F205532460001220343414645E0
:102CB00042414245464646464646464600012403B2
:102CC0004E6974726F6B6579204649444F205532C6
:102CD0004600FF2C84FF2C88FF2C94FF2CA9FF2C8E
:0D2CE000BDFF2C49FF2C5BFF2CD20500002E
:00000001FF
